
BLUETOOTH_P2P_EXAMPLE.elf:     file format elf32-littlearm

Sections:
Idx Name          Size      VMA       LMA       File off  Algn
  0 .text         00001410  00400000  00400000  00010000  2**6
                  CONTENTS, ALLOC, LOAD, READONLY, CODE
  1 .relocate     00000434  20400000  00401410  00020000  2**3
                  CONTENTS, ALLOC, LOAD, DATA
  2 .bss          000000b8  20400434  00401844  00020434  2**2
                  ALLOC
  3 .stack        00002004  204004ec  004018fc  00020434  2**0
                  ALLOC
  4 .heap         00000200  204024f0  00403900  00020434  2**0
                  ALLOC
  5 .ARM.attributes 0000002e  00000000  00000000  00020434  2**0
                  CONTENTS, READONLY
  6 .comment      00000059  00000000  00000000  00020462  2**0
                  CONTENTS, READONLY
  7 .debug_info   00011e25  00000000  00000000  000204bb  2**0
                  CONTENTS, READONLY, DEBUGGING
  8 .debug_abbrev 000023bf  00000000  00000000  000322e0  2**0
                  CONTENTS, READONLY, DEBUGGING
  9 .debug_loc    00003f44  00000000  00000000  0003469f  2**0
                  CONTENTS, READONLY, DEBUGGING
 10 .debug_aranges 00000950  00000000  00000000  000385e3  2**0
                  CONTENTS, READONLY, DEBUGGING
 11 .debug_ranges 000009e0  00000000  00000000  00038f33  2**0
                  CONTENTS, READONLY, DEBUGGING
 12 .debug_macro  0001da13  00000000  00000000  00039913  2**0
                  CONTENTS, READONLY, DEBUGGING
 13 .debug_line   00009514  00000000  00000000  00057326  2**0
                  CONTENTS, READONLY, DEBUGGING
 14 .debug_str    0008ad4b  00000000  00000000  0006083a  2**0
                  CONTENTS, READONLY, DEBUGGING
 15 .debug_frame  000015a8  00000000  00000000  000eb588  2**2
                  CONTENTS, READONLY, DEBUGGING

Disassembly of section .text:

00400000 <exception_table>:
  400000:	f0 24 40 20 99 09 40 00 95 09 40 00 95 09 40 00     .$@ ..@...@...@.
  400010:	95 09 40 00 95 09 40 00 95 09 40 00 00 00 00 00     ..@...@...@.....
	...
  40002c:	95 09 40 00 95 09 40 00 00 00 00 00 95 09 40 00     ..@...@.......@.
  40003c:	f9 0b 40 00 95 09 40 00 95 09 40 00 95 09 40 00     ..@...@...@...@.
  40004c:	95 09 40 00 95 09 40 00 95 09 40 00 95 09 40 00     ..@...@...@...@.
  40005c:	95 09 40 00 95 09 40 00 00 00 00 00 bd 07 40 00     ..@...@.......@.
  40006c:	d1 07 40 00 e5 07 40 00 95 09 40 00 95 09 40 00     ..@...@...@...@.
  40007c:	95 09 40 00 f9 07 40 00 0d 08 40 00 95 09 40 00     ..@...@...@...@.
  40008c:	95 09 40 00 95 09 40 00 95 09 40 00 95 09 40 00     ..@...@...@...@.
  40009c:	95 09 40 00 95 09 40 00 95 09 40 00 95 09 40 00     ..@...@...@...@.
  4000ac:	95 09 40 00 95 09 40 00 95 09 40 00 95 09 40 00     ..@...@...@...@.
  4000bc:	95 09 40 00 95 09 40 00 95 09 40 00 95 09 40 00     ..@...@...@...@.
  4000cc:	95 09 40 00 00 00 00 00 95 09 40 00 00 00 00 00     ..@.......@.....
  4000dc:	95 09 40 00 95 09 40 00 95 09 40 00 95 09 40 00     ..@...@...@...@.
  4000ec:	95 09 40 00 95 09 40 00 95 09 40 00 95 09 40 00     ..@...@...@...@.
  4000fc:	95 09 40 00 95 09 40 00 95 09 40 00 95 09 40 00     ..@...@...@...@.
  40010c:	95 09 40 00 95 09 40 00 00 00 00 00 00 00 00 00     ..@...@.........
  40011c:	00 00 00 00 95 09 40 00 95 09 40 00 95 09 40 00     ......@...@...@.
  40012c:	95 09 40 00 95 09 40 00 00 00 00 00 95 09 40 00     ..@...@.......@.
  40013c:	95 09 40 00                                         ..@.

00400140 <__do_global_dtors_aux>:
  400140:	b510      	push	{r4, lr}
  400142:	4c05      	ldr	r4, [pc, #20]	; (400158 <__do_global_dtors_aux+0x18>)
  400144:	7823      	ldrb	r3, [r4, #0]
  400146:	b933      	cbnz	r3, 400156 <__do_global_dtors_aux+0x16>
  400148:	4b04      	ldr	r3, [pc, #16]	; (40015c <__do_global_dtors_aux+0x1c>)
  40014a:	b113      	cbz	r3, 400152 <__do_global_dtors_aux+0x12>
  40014c:	4804      	ldr	r0, [pc, #16]	; (400160 <__do_global_dtors_aux+0x20>)
  40014e:	f3af 8000 	nop.w
  400152:	2301      	movs	r3, #1
  400154:	7023      	strb	r3, [r4, #0]
  400156:	bd10      	pop	{r4, pc}
  400158:	20400434 	.word	0x20400434
  40015c:	00000000 	.word	0x00000000
  400160:	00401410 	.word	0x00401410

00400164 <frame_dummy>:
  400164:	4b0c      	ldr	r3, [pc, #48]	; (400198 <frame_dummy+0x34>)
  400166:	b143      	cbz	r3, 40017a <frame_dummy+0x16>
  400168:	480c      	ldr	r0, [pc, #48]	; (40019c <frame_dummy+0x38>)
  40016a:	490d      	ldr	r1, [pc, #52]	; (4001a0 <frame_dummy+0x3c>)
  40016c:	b510      	push	{r4, lr}
  40016e:	f3af 8000 	nop.w
  400172:	480c      	ldr	r0, [pc, #48]	; (4001a4 <frame_dummy+0x40>)
  400174:	6803      	ldr	r3, [r0, #0]
  400176:	b923      	cbnz	r3, 400182 <frame_dummy+0x1e>
  400178:	bd10      	pop	{r4, pc}
  40017a:	480a      	ldr	r0, [pc, #40]	; (4001a4 <frame_dummy+0x40>)
  40017c:	6803      	ldr	r3, [r0, #0]
  40017e:	b933      	cbnz	r3, 40018e <frame_dummy+0x2a>
  400180:	4770      	bx	lr
  400182:	4b09      	ldr	r3, [pc, #36]	; (4001a8 <frame_dummy+0x44>)
  400184:	2b00      	cmp	r3, #0
  400186:	d0f7      	beq.n	400178 <frame_dummy+0x14>
  400188:	e8bd 4010 	ldmia.w	sp!, {r4, lr}
  40018c:	4718      	bx	r3
  40018e:	4b06      	ldr	r3, [pc, #24]	; (4001a8 <frame_dummy+0x44>)
  400190:	2b00      	cmp	r3, #0
  400192:	d0f5      	beq.n	400180 <frame_dummy+0x1c>
  400194:	4718      	bx	r3
  400196:	bf00      	nop
  400198:	00000000 	.word	0x00000000
  40019c:	00401410 	.word	0x00401410
  4001a0:	20400438 	.word	0x20400438
  4001a4:	00401410 	.word	0x00401410
  4001a8:	00000000 	.word	0x00000000

004001ac <usart_set_async_baudrate>:
 * \retval 1 Baud rate set point is out of range for the given input clock
 * frequency.
 */
uint32_t usart_set_async_baudrate(Usart *p_usart,
		uint32_t baudrate, uint32_t ul_mck)
{
  4001ac:	b410      	push	{r4}
	uint32_t cd_fp;
	uint32_t cd;
	uint32_t fp;

	/* Calculate the receiver sampling divide of baudrate clock. */
	if (ul_mck >= HIGH_FRQ_SAMPLE_DIV * baudrate) {
  4001ae:	010b      	lsls	r3, r1, #4
  4001b0:	4293      	cmp	r3, r2
  4001b2:	d914      	bls.n	4001de <usart_set_async_baudrate+0x32>
	} else {
		over = LOW_FRQ_SAMPLE_DIV;
	}

	/* Calculate clock divider according to the fraction calculated formula. */
	cd_fp = (8 * ul_mck + (over * baudrate) / 2) / (over * baudrate);
  4001b4:	00c9      	lsls	r1, r1, #3
  4001b6:	084b      	lsrs	r3, r1, #1
  4001b8:	eb03 02c2 	add.w	r2, r3, r2, lsl #3
  4001bc:	fbb2 f2f1 	udiv	r2, r2, r1
	cd = cd_fp >> 3;
  4001c0:	08d3      	lsrs	r3, r2, #3
	fp = cd_fp & 0x07;
	if (cd < MIN_CD_VALUE || cd > MAX_CD_VALUE) {
  4001c2:	1e5c      	subs	r4, r3, #1
  4001c4:	f64f 71fe 	movw	r1, #65534	; 0xfffe
  4001c8:	428c      	cmp	r4, r1
  4001ca:	d901      	bls.n	4001d0 <usart_set_async_baudrate+0x24>
		return 1;
  4001cc:	2001      	movs	r0, #1
  4001ce:	e017      	b.n	400200 <usart_set_async_baudrate+0x54>
	}

	/* Configure the OVER bit in MR register. */
	if (over == 8) {
		p_usart->US_MR |= US_MR_OVER;
  4001d0:	6841      	ldr	r1, [r0, #4]
  4001d2:	f441 2100 	orr.w	r1, r1, #524288	; 0x80000
  4001d6:	6041      	str	r1, [r0, #4]
  4001d8:	e00c      	b.n	4001f4 <usart_set_async_baudrate+0x48>
		return 1;
  4001da:	2001      	movs	r0, #1
  4001dc:	e010      	b.n	400200 <usart_set_async_baudrate+0x54>
	cd_fp = (8 * ul_mck + (over * baudrate) / 2) / (over * baudrate);
  4001de:	0859      	lsrs	r1, r3, #1
  4001e0:	eb01 02c2 	add.w	r2, r1, r2, lsl #3
  4001e4:	fbb2 f2f3 	udiv	r2, r2, r3
	cd = cd_fp >> 3;
  4001e8:	08d3      	lsrs	r3, r2, #3
	if (cd < MIN_CD_VALUE || cd > MAX_CD_VALUE) {
  4001ea:	1e5c      	subs	r4, r3, #1
  4001ec:	f64f 71fe 	movw	r1, #65534	; 0xfffe
  4001f0:	428c      	cmp	r4, r1
  4001f2:	d8f2      	bhi.n	4001da <usart_set_async_baudrate+0x2e>
	}

	/* Configure the baudrate generate register. */
	p_usart->US_BRGR = (cd << US_BRGR_CD_Pos) | (fp << US_BRGR_FP_Pos);
  4001f4:	0412      	lsls	r2, r2, #16
  4001f6:	f402 22e0 	and.w	r2, r2, #458752	; 0x70000
  4001fa:	431a      	orrs	r2, r3
  4001fc:	6202      	str	r2, [r0, #32]

	return 0;
  4001fe:	2000      	movs	r0, #0
}
  400200:	f85d 4b04 	ldr.w	r4, [sp], #4
  400204:	4770      	bx	lr
	...

00400208 <usart_reset>:
 *
 * \param p_usart Pointer to a USART instance.
 */
void usart_disable_writeprotect(Usart *p_usart)
{
	p_usart->US_WPMR = US_WPMR_WPKEY_PASSWD;
  400208:	4b08      	ldr	r3, [pc, #32]	; (40022c <usart_reset+0x24>)
  40020a:	f8c0 30e4 	str.w	r3, [r0, #228]	; 0xe4
	p_usart->US_MR = 0;
  40020e:	2300      	movs	r3, #0
  400210:	6043      	str	r3, [r0, #4]
	p_usart->US_RTOR = 0;
  400212:	6243      	str	r3, [r0, #36]	; 0x24
	p_usart->US_TTGR = 0;
  400214:	6283      	str	r3, [r0, #40]	; 0x28
	p_usart->US_CR = US_CR_RSTTX | US_CR_TXDIS;
  400216:	2388      	movs	r3, #136	; 0x88
  400218:	6003      	str	r3, [r0, #0]
	p_usart->US_CR = US_CR_RSTRX | US_CR_RXDIS;
  40021a:	2324      	movs	r3, #36	; 0x24
  40021c:	6003      	str	r3, [r0, #0]
	p_usart->US_CR = US_CR_RSTSTA;
  40021e:	f44f 7380 	mov.w	r3, #256	; 0x100
  400222:	6003      	str	r3, [r0, #0]
	p_usart->US_CR = US_CR_RTSDIS;
  400224:	f44f 2300 	mov.w	r3, #524288	; 0x80000
  400228:	6003      	str	r3, [r0, #0]
  40022a:	4770      	bx	lr
  40022c:	55534100 	.word	0x55534100

00400230 <usart_init_rs232>:
{
  400230:	b570      	push	{r4, r5, r6, lr}
  400232:	4605      	mov	r5, r0
  400234:	460c      	mov	r4, r1
  400236:	4616      	mov	r6, r2
	usart_reset(p_usart);
  400238:	4b0f      	ldr	r3, [pc, #60]	; (400278 <usart_init_rs232+0x48>)
  40023a:	4798      	blx	r3
	ul_reg_val = 0;
  40023c:	2200      	movs	r2, #0
  40023e:	4b0f      	ldr	r3, [pc, #60]	; (40027c <usart_init_rs232+0x4c>)
  400240:	601a      	str	r2, [r3, #0]
	if (!p_usart_opt || usart_set_async_baudrate(p_usart,
  400242:	b1a4      	cbz	r4, 40026e <usart_init_rs232+0x3e>
  400244:	4632      	mov	r2, r6
  400246:	6821      	ldr	r1, [r4, #0]
  400248:	4628      	mov	r0, r5
  40024a:	4b0d      	ldr	r3, [pc, #52]	; (400280 <usart_init_rs232+0x50>)
  40024c:	4798      	blx	r3
  40024e:	4602      	mov	r2, r0
  400250:	b978      	cbnz	r0, 400272 <usart_init_rs232+0x42>
	ul_reg_val |= p_usart_opt->char_length | p_usart_opt->parity_type |
  400252:	6863      	ldr	r3, [r4, #4]
  400254:	68a1      	ldr	r1, [r4, #8]
  400256:	430b      	orrs	r3, r1
  400258:	6921      	ldr	r1, [r4, #16]
  40025a:	430b      	orrs	r3, r1
			p_usart_opt->channel_mode | p_usart_opt->stop_bits;
  40025c:	68e1      	ldr	r1, [r4, #12]
  40025e:	430b      	orrs	r3, r1
	ul_reg_val |= p_usart_opt->char_length | p_usart_opt->parity_type |
  400260:	4906      	ldr	r1, [pc, #24]	; (40027c <usart_init_rs232+0x4c>)
  400262:	600b      	str	r3, [r1, #0]
	p_usart->US_MR |= ul_reg_val;
  400264:	6869      	ldr	r1, [r5, #4]
  400266:	430b      	orrs	r3, r1
  400268:	606b      	str	r3, [r5, #4]
}
  40026a:	4610      	mov	r0, r2
  40026c:	bd70      	pop	{r4, r5, r6, pc}
		return 1;
  40026e:	2201      	movs	r2, #1
  400270:	e7fb      	b.n	40026a <usart_init_rs232+0x3a>
  400272:	2201      	movs	r2, #1
  400274:	e7f9      	b.n	40026a <usart_init_rs232+0x3a>
  400276:	bf00      	nop
  400278:	00400209 	.word	0x00400209
  40027c:	20400450 	.word	0x20400450
  400280:	004001ad 	.word	0x004001ad

00400284 <usart_enable_tx>:
	p_usart->US_CR = US_CR_TXEN;
  400284:	2340      	movs	r3, #64	; 0x40
  400286:	6003      	str	r3, [r0, #0]
  400288:	4770      	bx	lr

0040028a <usart_enable_rx>:
	p_usart->US_CR = US_CR_RXEN;
  40028a:	2310      	movs	r3, #16
  40028c:	6003      	str	r3, [r0, #0]
  40028e:	4770      	bx	lr

00400290 <usart_write>:
	if (!(p_usart->US_CSR & US_CSR_TXRDY)) {
  400290:	6943      	ldr	r3, [r0, #20]
  400292:	f013 0f02 	tst.w	r3, #2
  400296:	d004      	beq.n	4002a2 <usart_write+0x12>
	p_usart->US_THR = US_THR_TXCHR(c);
  400298:	f3c1 0108 	ubfx	r1, r1, #0, #9
  40029c:	61c1      	str	r1, [r0, #28]
	return 0;
  40029e:	2000      	movs	r0, #0
  4002a0:	4770      	bx	lr
		return 1;
  4002a2:	2001      	movs	r0, #1
}
  4002a4:	4770      	bx	lr

004002a6 <usart_read>:
	if (!(p_usart->US_CSR & US_CSR_RXRDY)) {
  4002a6:	6943      	ldr	r3, [r0, #20]
  4002a8:	f013 0f01 	tst.w	r3, #1
  4002ac:	d005      	beq.n	4002ba <usart_read+0x14>
	*c = p_usart->US_RHR & US_RHR_RXCHR_Msk;
  4002ae:	6983      	ldr	r3, [r0, #24]
  4002b0:	f3c3 0308 	ubfx	r3, r3, #0, #9
  4002b4:	600b      	str	r3, [r1, #0]
	return 0;
  4002b6:	2000      	movs	r0, #0
  4002b8:	4770      	bx	lr
		return 1;
  4002ba:	2001      	movs	r0, #1
}
  4002bc:	4770      	bx	lr
	...

004002c0 <usart_serial_write_packet>:
 *
 */
status_code_t usart_serial_write_packet(usart_if usart, const uint8_t *data,
		size_t len)
{
	while (len) {
  4002c0:	2a00      	cmp	r2, #0
  4002c2:	d054      	beq.n	40036e <usart_serial_write_packet+0xae>
{
  4002c4:	e92d 4ff8 	stmdb	sp!, {r3, r4, r5, r6, r7, r8, r9, sl, fp, lr}
  4002c8:	4692      	mov	sl, r2
  4002ca:	4606      	mov	r6, r0
  4002cc:	460f      	mov	r7, r1
  4002ce:	448a      	add	sl, r1
		while (uart_write((Uart*)p_usart, c)!=0);
		return 1;
	}
#else
# ifdef UART0
	if (UART0 == (Uart*)p_usart) {
  4002d0:	f8df 80b8 	ldr.w	r8, [pc, #184]	; 40038c <usart_serial_write_packet+0xcc>
		while (uart_write((Uart*)p_usart, c)!=0);
  4002d4:	4d27      	ldr	r5, [pc, #156]	; (400374 <usart_serial_write_packet+0xb4>)
		return 1;
	}
# endif
# ifdef UART1
	if (UART1 == (Uart*)p_usart) {
  4002d6:	f8df 90b8 	ldr.w	r9, [pc, #184]	; 400390 <usart_serial_write_packet+0xd0>
  4002da:	e006      	b.n	4002ea <usart_serial_write_packet+0x2a>
		while (uart_write((Uart*)p_usart, c)!=0);
  4002dc:	4621      	mov	r1, r4
  4002de:	4640      	mov	r0, r8
  4002e0:	47a8      	blx	r5
  4002e2:	2800      	cmp	r0, #0
  4002e4:	d1fa      	bne.n	4002dc <usart_serial_write_packet+0x1c>
	while (len) {
  4002e6:	45ba      	cmp	sl, r7
  4002e8:	d03e      	beq.n	400368 <usart_serial_write_packet+0xa8>
		usart_serial_putchar(usart, *data);
  4002ea:	f817 4b01 	ldrb.w	r4, [r7], #1
	if (UART0 == (Uart*)p_usart) {
  4002ee:	4546      	cmp	r6, r8
  4002f0:	d0f4      	beq.n	4002dc <usart_serial_write_packet+0x1c>
	if (UART1 == (Uart*)p_usart) {
  4002f2:	454e      	cmp	r6, r9
  4002f4:	d016      	beq.n	400324 <usart_serial_write_packet+0x64>
		while (uart_write((Uart*)p_usart, c)!=0);
		return 1;
	}
# endif
# ifdef UART2
	if (UART2 == (Uart*)p_usart) {
  4002f6:	4b20      	ldr	r3, [pc, #128]	; (400378 <usart_serial_write_packet+0xb8>)
  4002f8:	429e      	cmp	r6, r3
  4002fa:	d019      	beq.n	400330 <usart_serial_write_packet+0x70>
		while (uart_write((Uart*)p_usart, c)!=0);
		return 1;
	}
# endif
# ifdef UART3
	if (UART3 == (Uart*)p_usart) {
  4002fc:	4b1f      	ldr	r3, [pc, #124]	; (40037c <usart_serial_write_packet+0xbc>)
  4002fe:	429e      	cmp	r6, r3
  400300:	d01c      	beq.n	40033c <usart_serial_write_packet+0x7c>
		while (usart_write(p_usart, c)!=0);
		return 1;
	}
#else
# ifdef USART0
	if (USART0 == p_usart) {
  400302:	4b1f      	ldr	r3, [pc, #124]	; (400380 <usart_serial_write_packet+0xc0>)
  400304:	429e      	cmp	r6, r3
  400306:	d01f      	beq.n	400348 <usart_serial_write_packet+0x88>
		while (usart_write(p_usart, c)!=0);
		return 1;
	}
# endif
# ifdef USART1
	if (USART1 == p_usart) {
  400308:	4b1e      	ldr	r3, [pc, #120]	; (400384 <usart_serial_write_packet+0xc4>)
  40030a:	429e      	cmp	r6, r3
  40030c:	d024      	beq.n	400358 <usart_serial_write_packet+0x98>
		while (usart_write(p_usart, c)!=0);
		return 1;
	}
# endif
# ifdef USART2
	if (USART2 == p_usart) {
  40030e:	4b1e      	ldr	r3, [pc, #120]	; (400388 <usart_serial_write_packet+0xc8>)
  400310:	429e      	cmp	r6, r3
  400312:	d1e8      	bne.n	4002e6 <usart_serial_write_packet+0x26>
		while (usart_write(p_usart, c)!=0);
  400314:	f8df b07c 	ldr.w	fp, [pc, #124]	; 400394 <usart_serial_write_packet+0xd4>
  400318:	4621      	mov	r1, r4
  40031a:	481b      	ldr	r0, [pc, #108]	; (400388 <usart_serial_write_packet+0xc8>)
  40031c:	47d8      	blx	fp
  40031e:	2800      	cmp	r0, #0
  400320:	d1fa      	bne.n	400318 <usart_serial_write_packet+0x58>
  400322:	e7e0      	b.n	4002e6 <usart_serial_write_packet+0x26>
		while (uart_write((Uart*)p_usart, c)!=0);
  400324:	4621      	mov	r1, r4
  400326:	4648      	mov	r0, r9
  400328:	47a8      	blx	r5
  40032a:	2800      	cmp	r0, #0
  40032c:	d1fa      	bne.n	400324 <usart_serial_write_packet+0x64>
  40032e:	e7da      	b.n	4002e6 <usart_serial_write_packet+0x26>
		while (uart_write((Uart*)p_usart, c)!=0);
  400330:	4621      	mov	r1, r4
  400332:	4811      	ldr	r0, [pc, #68]	; (400378 <usart_serial_write_packet+0xb8>)
  400334:	47a8      	blx	r5
  400336:	2800      	cmp	r0, #0
  400338:	d1fa      	bne.n	400330 <usart_serial_write_packet+0x70>
  40033a:	e7d4      	b.n	4002e6 <usart_serial_write_packet+0x26>
		while (uart_write((Uart*)p_usart, c)!=0);
  40033c:	4621      	mov	r1, r4
  40033e:	480f      	ldr	r0, [pc, #60]	; (40037c <usart_serial_write_packet+0xbc>)
  400340:	47a8      	blx	r5
  400342:	2800      	cmp	r0, #0
  400344:	d1fa      	bne.n	40033c <usart_serial_write_packet+0x7c>
  400346:	e7ce      	b.n	4002e6 <usart_serial_write_packet+0x26>
		while (usart_write(p_usart, c)!=0);
  400348:	f8df b048 	ldr.w	fp, [pc, #72]	; 400394 <usart_serial_write_packet+0xd4>
  40034c:	4621      	mov	r1, r4
  40034e:	480c      	ldr	r0, [pc, #48]	; (400380 <usart_serial_write_packet+0xc0>)
  400350:	47d8      	blx	fp
  400352:	2800      	cmp	r0, #0
  400354:	d1fa      	bne.n	40034c <usart_serial_write_packet+0x8c>
  400356:	e7c6      	b.n	4002e6 <usart_serial_write_packet+0x26>
		while (usart_write(p_usart, c)!=0);
  400358:	f8df b038 	ldr.w	fp, [pc, #56]	; 400394 <usart_serial_write_packet+0xd4>
  40035c:	4621      	mov	r1, r4
  40035e:	4809      	ldr	r0, [pc, #36]	; (400384 <usart_serial_write_packet+0xc4>)
  400360:	47d8      	blx	fp
  400362:	2800      	cmp	r0, #0
  400364:	d1fa      	bne.n	40035c <usart_serial_write_packet+0x9c>
  400366:	e7be      	b.n	4002e6 <usart_serial_write_packet+0x26>
		len--;
		data++;
	}
	return STATUS_OK;
}
  400368:	2000      	movs	r0, #0
  40036a:	e8bd 8ff8 	ldmia.w	sp!, {r3, r4, r5, r6, r7, r8, r9, sl, fp, pc}
  40036e:	2000      	movs	r0, #0
  400370:	4770      	bx	lr
  400372:	bf00      	nop
  400374:	004003c9 	.word	0x004003c9
  400378:	400e1a00 	.word	0x400e1a00
  40037c:	400e1c00 	.word	0x400e1c00
  400380:	40024000 	.word	0x40024000
  400384:	40028000 	.word	0x40028000
  400388:	4002c000 	.word	0x4002c000
  40038c:	400e0800 	.word	0x400e0800
  400390:	400e0a00 	.word	0x400e0a00
  400394:	00400291 	.word	0x00400291

00400398 <uart_init>:
 *
 * \retval 0 Success.
 * \retval 1 Bad baud rate generator value.
 */
uint32_t uart_init(Uart *p_uart, const sam_uart_opt_t *p_uart_opt)
{
  400398:	b410      	push	{r4}
	uint32_t cd = 0;

	/* Reset and disable receiver & transmitter */
	p_uart->UART_CR = UART_CR_RSTRX | UART_CR_RSTTX
  40039a:	23ac      	movs	r3, #172	; 0xac
  40039c:	6003      	str	r3, [r0, #0]
			| UART_CR_RXDIS | UART_CR_TXDIS;

	/* Check and configure baudrate */
	/* Asynchronous, no oversampling */
	cd = (p_uart_opt->ul_mck / p_uart_opt->ul_baudrate) / UART_MCK_DIV;
  40039e:	680b      	ldr	r3, [r1, #0]
  4003a0:	684a      	ldr	r2, [r1, #4]
  4003a2:	fbb3 f3f2 	udiv	r3, r3, r2
  4003a6:	091b      	lsrs	r3, r3, #4
	if (cd < UART_MCK_DIV_MIN_FACTOR || cd > UART_MCK_DIV_MAX_FACTOR)
  4003a8:	1e5c      	subs	r4, r3, #1
  4003aa:	f64f 72fe 	movw	r2, #65534	; 0xfffe
  4003ae:	4294      	cmp	r4, r2
  4003b0:	d808      	bhi.n	4003c4 <uart_init+0x2c>
		return 1;

	p_uart->UART_BRGR = cd;
  4003b2:	6203      	str	r3, [r0, #32]
	/* Configure mode */
	p_uart->UART_MR = p_uart_opt->ul_mode;
  4003b4:	688b      	ldr	r3, [r1, #8]
  4003b6:	6043      	str	r3, [r0, #4]
	/* Disable PDC channel */
	p_uart->UART_PTCR = UART_PTCR_RXTDIS | UART_PTCR_TXTDIS;
#endif

	/* Enable receiver and transmitter */
	p_uart->UART_CR = UART_CR_RXEN | UART_CR_TXEN;
  4003b8:	2350      	movs	r3, #80	; 0x50
  4003ba:	6003      	str	r3, [r0, #0]

	return 0;
  4003bc:	2000      	movs	r0, #0
}
  4003be:	f85d 4b04 	ldr.w	r4, [sp], #4
  4003c2:	4770      	bx	lr
		return 1;
  4003c4:	2001      	movs	r0, #1
  4003c6:	e7fa      	b.n	4003be <uart_init+0x26>

004003c8 <uart_write>:
 * \retval 1 I/O Failure, UART is not ready.
 */
uint32_t uart_write(Uart *p_uart, const uint8_t uc_data)
{
	/* Check if the transmitter is ready */
	if (!(p_uart->UART_SR & UART_SR_TXRDY))
  4003c8:	6943      	ldr	r3, [r0, #20]
  4003ca:	f013 0f02 	tst.w	r3, #2
  4003ce:	d002      	beq.n	4003d6 <uart_write+0xe>
		return 1;

	/* Send character */
	p_uart->UART_THR = uc_data;
  4003d0:	61c1      	str	r1, [r0, #28]
	return 0;
  4003d2:	2000      	movs	r0, #0
  4003d4:	4770      	bx	lr
		return 1;
  4003d6:	2001      	movs	r0, #1
}
  4003d8:	4770      	bx	lr
	...

004003dc <sysclk_init>:
	pmc_disable_udpck();
}
#endif // CONFIG_USBCLK_SOURCE

void sysclk_init(void)
{
  4003dc:	b510      	push	{r4, lr}
	struct pll_config pllcfg;

	/* Set flash wait state to max in case the below clock switching. */
	system_init_flash(CHIP_FREQ_CPU_MAX);
  4003de:	4810      	ldr	r0, [pc, #64]	; (400420 <sysclk_init+0x44>)
  4003e0:	4b10      	ldr	r3, [pc, #64]	; (400424 <sysclk_init+0x48>)
  4003e2:	4798      	blx	r3
		pmc_switch_mainck_to_fastrc(CKGR_MOR_MOSCRCF_12_MHz);
		break;


	case OSC_MAINCK_XTAL:
		pmc_switch_mainck_to_xtal(PMC_OSC_XTAL,
  4003e4:	213e      	movs	r1, #62	; 0x3e
  4003e6:	2000      	movs	r0, #0
  4003e8:	4b0f      	ldr	r3, [pc, #60]	; (400428 <sysclk_init+0x4c>)
  4003ea:	4798      	blx	r3
	case OSC_MAINCK_4M_RC:
	case OSC_MAINCK_8M_RC:
	case OSC_MAINCK_12M_RC:
	case OSC_MAINCK_XTAL:
	case OSC_MAINCK_BYPASS:
		return pmc_osc_is_ready_mainck();
  4003ec:	4c0f      	ldr	r4, [pc, #60]	; (40042c <sysclk_init+0x50>)
  4003ee:	47a0      	blx	r4
 *
 * \param id A number identifying the oscillator to wait for.
 */
static inline void osc_wait_ready(uint8_t id)
{
	while (!osc_is_ready(id)) {
  4003f0:	2800      	cmp	r0, #0
  4003f2:	d0fc      	beq.n	4003ee <sysclk_init+0x12>
static inline void pll_enable(const struct pll_config *p_cfg, uint32_t ul_pll_id)
{
	Assert(ul_pll_id < NR_PLLS);

	if (ul_pll_id == PLLA_ID) {
		pmc_disable_pllack(); // Always stop PLL first!
  4003f4:	4b0e      	ldr	r3, [pc, #56]	; (400430 <sysclk_init+0x54>)
  4003f6:	4798      	blx	r3
		PMC->CKGR_PLLAR = CKGR_PLLAR_ONE | p_cfg->ctrl;
  4003f8:	4a0e      	ldr	r2, [pc, #56]	; (400434 <sysclk_init+0x58>)
  4003fa:	4b0f      	ldr	r3, [pc, #60]	; (400438 <sysclk_init+0x5c>)
  4003fc:	629a      	str	r2, [r3, #40]	; 0x28
static inline uint32_t pll_is_locked(uint32_t ul_pll_id)
{
	Assert(ul_pll_id < NR_PLLS);

	if (ul_pll_id == PLLA_ID) {
	return pmc_is_locked_pllack();
  4003fe:	4c0f      	ldr	r4, [pc, #60]	; (40043c <sysclk_init+0x60>)
  400400:	47a0      	blx	r4
 */
static inline int pll_wait_for_lock(unsigned int pll_id)
{
	Assert(pll_id < NR_PLLS);

	while (!pll_is_locked(pll_id)) {
  400402:	2800      	cmp	r0, #0
  400404:	d0fc      	beq.n	400400 <sysclk_init+0x24>
	else if (CONFIG_SYSCLK_SOURCE == SYSCLK_SRC_PLLACK) {
		pll_enable_source(CONFIG_PLL0_SOURCE);
		pll_config_defaults(&pllcfg, 0);
		pll_enable(&pllcfg, 0);
		pll_wait_for_lock(0);
		pmc_mck_set_division(CONFIG_SYSCLK_DIV);
  400406:	2002      	movs	r0, #2
  400408:	4b0d      	ldr	r3, [pc, #52]	; (400440 <sysclk_init+0x64>)
  40040a:	4798      	blx	r3
		pmc_switch_mck_to_pllack(CONFIG_SYSCLK_PRES);
  40040c:	2000      	movs	r0, #0
  40040e:	4b0d      	ldr	r3, [pc, #52]	; (400444 <sysclk_init+0x68>)
  400410:	4798      	blx	r3
		pll_wait_for_lock(1);
		pmc_mck_set_division(CONFIG_SYSCLK_DIV);
		pmc_switch_mck_to_upllck(CONFIG_SYSCLK_PRES);
	}
	/* Update the SystemFrequency variable */
	SystemCoreClockUpdate();
  400412:	4b0d      	ldr	r3, [pc, #52]	; (400448 <sysclk_init+0x6c>)
  400414:	4798      	blx	r3

	/* Set a flash wait state depending on the new cpu frequency */
	system_init_flash(sysclk_get_cpu_hz());
  400416:	4802      	ldr	r0, [pc, #8]	; (400420 <sysclk_init+0x44>)
  400418:	4b02      	ldr	r3, [pc, #8]	; (400424 <sysclk_init+0x48>)
  40041a:	4798      	blx	r3
  40041c:	bd10      	pop	{r4, pc}
  40041e:	bf00      	nop
  400420:	11e1a300 	.word	0x11e1a300
  400424:	00400b6d 	.word	0x00400b6d
  400428:	004008bd 	.word	0x004008bd
  40042c:	00400911 	.word	0x00400911
  400430:	00400921 	.word	0x00400921
  400434:	20183f01 	.word	0x20183f01
  400438:	400e0600 	.word	0x400e0600
  40043c:	00400931 	.word	0x00400931
  400440:	00400821 	.word	0x00400821
  400444:	00400859 	.word	0x00400859
  400448:	00400a61 	.word	0x00400a61

0040044c <board_init>:
	__ISB();
}
#endif

void board_init(void)
{
  40044c:	b5f8      	push	{r3, r4, r5, r6, r7, lr}
#ifndef CONF_BOARD_KEEP_WATCHDOG_AT_INIT
	/* Disable the watchdog */
	WDT->WDT_MR = WDT_MR_WDDIS;
  40044e:	f44f 4200 	mov.w	r2, #32768	; 0x8000
  400452:	4b5c      	ldr	r3, [pc, #368]	; (4005c4 <board_init+0x178>)
  400454:	605a      	str	r2, [r3, #4]
    This function acts as a special kind of Data Memory Barrier.
    It completes when all explicit memory accesses before this instruction complete.
 */
__attribute__( ( always_inline ) ) __STATIC_INLINE void __DSB(void)
{
  __ASM volatile ("dsb");
  400456:	f3bf 8f4f 	dsb	sy
  __ASM volatile ("isb");
  40045a:	f3bf 8f6f 	isb	sy
__STATIC_INLINE void SCB_EnableICache(void)
{
  #if (__ICACHE_PRESENT == 1)
    __DSB();
    __ISB();
    SCB->ICIALLU = 0;                       // invalidate I-Cache
  40045e:	4b5a      	ldr	r3, [pc, #360]	; (4005c8 <board_init+0x17c>)
  400460:	2200      	movs	r2, #0
  400462:	f8c3 2250 	str.w	r2, [r3, #592]	; 0x250
    SCB->CCR |=  SCB_CCR_IC_Msk;            // enable I-Cache
  400466:	695a      	ldr	r2, [r3, #20]
  400468:	f442 3200 	orr.w	r2, r2, #131072	; 0x20000
  40046c:	615a      	str	r2, [r3, #20]
  __ASM volatile ("dsb");
  40046e:	f3bf 8f4f 	dsb	sy
  __ASM volatile ("isb");
  400472:	f3bf 8f6f 	isb	sy
{
  #if (__DCACHE_PRESENT == 1)
    uint32_t ccsidr, sshift, wshift, sw;
    uint32_t sets, ways;

    ccsidr  = SCB->CCSIDR;
  400476:	f8d3 7080 	ldr.w	r7, [r3, #128]	; 0x80
    sets    = CCSIDR_SETS(ccsidr);
  40047a:	f3c7 364e 	ubfx	r6, r7, #13, #15
    sshift  = CCSIDR_LSSHIFT(ccsidr) + 4;
  40047e:	f007 0007 	and.w	r0, r7, #7
  400482:	3004      	adds	r0, #4
    ways    = CCSIDR_WAYS(ccsidr);
  400484:	f3c7 07c9 	ubfx	r7, r7, #3, #10
 */
__attribute__( ( always_inline ) ) __STATIC_INLINE uint8_t __CLZ(uint32_t value)
{
  uint32_t result;

  __ASM volatile ("clz %0, %1" : "=r" (result) : "r" (value) );
  400488:	fab7 fe87 	clz	lr, r7
    wshift  = __CLZ(ways) & 0x1f;
  40048c:	f00e 0e1f 	and.w	lr, lr, #31
  __ASM volatile ("dsb");
  400490:	f3bf 8f4f 	dsb	sy
  400494:	f04f 34ff 	mov.w	r4, #4294967295
  400498:	fa04 fc00 	lsl.w	ip, r4, r0
  40049c:	fa06 f000 	lsl.w	r0, r6, r0
  4004a0:	fa04 f40e 	lsl.w	r4, r4, lr
  4004a4:	fa07 fe0e 	lsl.w	lr, r7, lr

    do {                                    // invalidate D-Cache
         int32_t tmpways = ways;
         do {
              sw = ((tmpways << wshift) | (sets << sshift));
              SCB->DCISW = sw;
  4004a8:	461d      	mov	r5, r3
         int32_t tmpways = ways;
  4004aa:	463a      	mov	r2, r7
  4004ac:	4673      	mov	r3, lr
              sw = ((tmpways << wshift) | (sets << sshift));
  4004ae:	ea40 0103 	orr.w	r1, r0, r3
              SCB->DCISW = sw;
  4004b2:	f8c5 1260 	str.w	r1, [r5, #608]	; 0x260
            } while(tmpways--);
  4004b6:	3a01      	subs	r2, #1
  4004b8:	4423      	add	r3, r4
  4004ba:	f1b2 3fff 	cmp.w	r2, #4294967295
  4004be:	d1f6      	bne.n	4004ae <board_init+0x62>
        } while(sets--);
  4004c0:	3e01      	subs	r6, #1
  4004c2:	4460      	add	r0, ip
  4004c4:	f1b6 3fff 	cmp.w	r6, #4294967295
  4004c8:	d1ef      	bne.n	4004aa <board_init+0x5e>
  4004ca:	f3bf 8f4f 	dsb	sy
    __DSB();

    SCB->CCR |=  SCB_CCR_DC_Msk;            // enable D-Cache
  4004ce:	4b3e      	ldr	r3, [pc, #248]	; (4005c8 <board_init+0x17c>)
  4004d0:	695a      	ldr	r2, [r3, #20]
  4004d2:	f442 3280 	orr.w	r2, r2, #65536	; 0x10000
  4004d6:	615a      	str	r2, [r3, #20]
  4004d8:	f3bf 8f4f 	dsb	sy
  __ASM volatile ("isb");
  4004dc:	f3bf 8f6f 	isb	sy
		*dst++ = *src++;
	}
#endif
#else
	/* TCM Configuration */
	EFC->EEFC_FCR = (EEFC_FCR_FKEY_PASSWD | EEFC_FCR_FCMD_CGPB 
  4004e0:	4a3a      	ldr	r2, [pc, #232]	; (4005cc <board_init+0x180>)
  4004e2:	493b      	ldr	r1, [pc, #236]	; (4005d0 <board_init+0x184>)
  4004e4:	6051      	str	r1, [r2, #4]
					| EEFC_FCR_FARG(8));
	EFC->EEFC_FCR = (EEFC_FCR_FKEY_PASSWD | EEFC_FCR_FCMD_CGPB 
  4004e6:	f5a1 7180 	sub.w	r1, r1, #256	; 0x100
  4004ea:	6051      	str	r1, [r2, #4]
  __ASM volatile ("dsb");
  4004ec:	f3bf 8f4f 	dsb	sy
  __ASM volatile ("isb");
  4004f0:	f3bf 8f6f 	isb	sy
	SCB->ITCMCR &= ~(uint32_t)(1UL);
  4004f4:	f8d3 2290 	ldr.w	r2, [r3, #656]	; 0x290
  4004f8:	f022 0201 	bic.w	r2, r2, #1
  4004fc:	f8c3 2290 	str.w	r2, [r3, #656]	; 0x290
	SCB->DTCMCR &= ~(uint32_t)SCB_DTCMCR_EN_Msk;
  400500:	f8d3 2294 	ldr.w	r2, [r3, #660]	; 0x294
  400504:	f022 0201 	bic.w	r2, r2, #1
  400508:	f8c3 2294 	str.w	r2, [r3, #660]	; 0x294
  __ASM volatile ("dsb");
  40050c:	f3bf 8f4f 	dsb	sy
  __ASM volatile ("isb");
  400510:	f3bf 8f6f 	isb	sy
 *
 * \param ul_id Id (number) of the peripheral clock.
 */
static inline void sysclk_enable_peripheral_clock(uint32_t ul_id)
{
	pmc_enable_periph_clk(ul_id);
  400514:	200a      	movs	r0, #10
  400516:	4c2f      	ldr	r4, [pc, #188]	; (4005d4 <board_init+0x188>)
  400518:	47a0      	blx	r4
  40051a:	200b      	movs	r0, #11
  40051c:	47a0      	blx	r4
  40051e:	200c      	movs	r0, #12
  400520:	47a0      	blx	r4
  400522:	2010      	movs	r0, #16
  400524:	47a0      	blx	r4
  400526:	2011      	movs	r0, #17
  400528:	47a0      	blx	r4
		enum ioport_direction dir)
{
	Pio *base = arch_ioport_pin_to_base(pin);

	if (dir == IOPORT_DIR_OUTPUT) {
		base->PIO_OER = arch_ioport_pin_to_mask(pin);
  40052a:	4b2b      	ldr	r3, [pc, #172]	; (4005d8 <board_init+0x18c>)
  40052c:	f44f 7280 	mov.w	r2, #256	; 0x100
  400530:	611a      	str	r2, [r3, #16]
	} else if (dir == IOPORT_DIR_INPUT) {
		base->PIO_ODR = arch_ioport_pin_to_mask(pin);
	}

	base->PIO_OWER = arch_ioport_pin_to_mask(pin);
  400532:	f8c3 20a0 	str.w	r2, [r3, #160]	; 0xa0
		bool level)
{
	Pio *base = arch_ioport_pin_to_base(pin);

	if (level) {
		base->PIO_SODR = arch_ioport_pin_to_mask(pin);
  400536:	631a      	str	r2, [r3, #48]	; 0x30
		base->PIO_ODR = arch_ioport_pin_to_mask(pin);
  400538:	f5a3 6380 	sub.w	r3, r3, #1024	; 0x400
  40053c:	f44f 6200 	mov.w	r2, #2048	; 0x800
  400540:	615a      	str	r2, [r3, #20]
	base->PIO_OWER = arch_ioport_pin_to_mask(pin);
  400542:	f8c3 20a0 	str.w	r2, [r3, #160]	; 0xa0
		base->PIO_PUER = mask;
  400546:	665a      	str	r2, [r3, #100]	; 0x64
		base->PIO_PPDDR = mask;
  400548:	f8c3 2090 	str.w	r2, [r3, #144]	; 0x90
		base->PIO_MDDR = mask;
  40054c:	655a      	str	r2, [r3, #84]	; 0x54
		base->PIO_IFER = mask;
  40054e:	621a      	str	r2, [r3, #32]
		base->PIO_IFSCER = mask;
  400550:	f8c3 2084 	str.w	r2, [r3, #132]	; 0x84
		base->PIO_ABCDSR[0] &= ~mask;
  400554:	6f19      	ldr	r1, [r3, #112]	; 0x70
  400556:	f421 6100 	bic.w	r1, r1, #2048	; 0x800
  40055a:	6719      	str	r1, [r3, #112]	; 0x70
		base->PIO_ABCDSR[1] &= ~mask;
  40055c:	6f59      	ldr	r1, [r3, #116]	; 0x74
  40055e:	f421 6100 	bic.w	r1, r1, #2048	; 0x800
  400562:	6759      	str	r1, [r3, #116]	; 0x74
	case IOPORT_SENSE_FALLING:
		base->PIO_ESR = mask;
		base->PIO_FELLSR = mask;
		break;
	case IOPORT_SENSE_RISING:
		base->PIO_ESR = mask;
  400564:	f8c3 20c0 	str.w	r2, [r3, #192]	; 0xc0
		base->PIO_REHLSR = mask;
  400568:	f8c3 20d4 	str.w	r2, [r3, #212]	; 0xd4
		break;
	default:
		base->PIO_AIMDR = mask;
		return;
	}
	base->PIO_AIMER = mask;
  40056c:	f8c3 20b0 	str.w	r2, [r3, #176]	; 0xb0
		base->PIO_PUDR = mask;
  400570:	f44f 1200 	mov.w	r2, #2097152	; 0x200000
  400574:	661a      	str	r2, [r3, #96]	; 0x60
		base->PIO_PPDDR = mask;
  400576:	f8c3 2090 	str.w	r2, [r3, #144]	; 0x90
		base->PIO_MDDR = mask;
  40057a:	655a      	str	r2, [r3, #84]	; 0x54
		base->PIO_IFDR = mask;
  40057c:	625a      	str	r2, [r3, #36]	; 0x24
		base->PIO_IFSCDR = mask;
  40057e:	f8c3 2080 	str.w	r2, [r3, #128]	; 0x80
		base->PIO_ABCDSR[0] &= ~mask;
  400582:	6f19      	ldr	r1, [r3, #112]	; 0x70
  400584:	f421 1100 	bic.w	r1, r1, #2097152	; 0x200000
  400588:	6719      	str	r1, [r3, #112]	; 0x70
		base->PIO_ABCDSR[1] &= ~mask;
  40058a:	6f59      	ldr	r1, [r3, #116]	; 0x74
  40058c:	f421 1100 	bic.w	r1, r1, #2097152	; 0x200000
  400590:	6759      	str	r1, [r3, #116]	; 0x74
	arch_ioport_port_to_base(port)->PIO_PDR = mask;
  400592:	605a      	str	r2, [r3, #4]
			GPIO_PUSH_BUTTON_1_SENSE);

#ifdef CONF_BOARD_UART_CONSOLE
	/* Configure UART pins */
	ioport_set_pin_peripheral_mode(USART1_RXD_GPIO, USART1_RXD_FLAGS);
	MATRIX->CCFG_SYSIO |= CCFG_SYSIO_SYSIO4;
  400594:	4a11      	ldr	r2, [pc, #68]	; (4005dc <board_init+0x190>)
  400596:	f8d2 3114 	ldr.w	r3, [r2, #276]	; 0x114
  40059a:	f043 0310 	orr.w	r3, r3, #16
  40059e:	f8c2 3114 	str.w	r3, [r2, #276]	; 0x114
		base->PIO_PUDR = mask;
  4005a2:	4b0f      	ldr	r3, [pc, #60]	; (4005e0 <board_init+0x194>)
  4005a4:	2210      	movs	r2, #16
  4005a6:	661a      	str	r2, [r3, #96]	; 0x60
		base->PIO_PPDDR = mask;
  4005a8:	f8c3 2090 	str.w	r2, [r3, #144]	; 0x90
		base->PIO_MDDR = mask;
  4005ac:	655a      	str	r2, [r3, #84]	; 0x54
		base->PIO_IFDR = mask;
  4005ae:	625a      	str	r2, [r3, #36]	; 0x24
		base->PIO_IFSCDR = mask;
  4005b0:	f8c3 2080 	str.w	r2, [r3, #128]	; 0x80
		base->PIO_ABCDSR[0] |= mask;
  4005b4:	6f19      	ldr	r1, [r3, #112]	; 0x70
  4005b6:	4311      	orrs	r1, r2
  4005b8:	6719      	str	r1, [r3, #112]	; 0x70
		base->PIO_ABCDSR[1] |= mask;
  4005ba:	6f59      	ldr	r1, [r3, #116]	; 0x74
  4005bc:	4311      	orrs	r1, r2
  4005be:	6759      	str	r1, [r3, #116]	; 0x74
	arch_ioport_port_to_base(port)->PIO_PDR = mask;
  4005c0:	605a      	str	r2, [r3, #4]
  4005c2:	bdf8      	pop	{r3, r4, r5, r6, r7, pc}
  4005c4:	400e1850 	.word	0x400e1850
  4005c8:	e000ed00 	.word	0xe000ed00
  4005cc:	400e0c00 	.word	0x400e0c00
  4005d0:	5a00080c 	.word	0x5a00080c
  4005d4:	00400941 	.word	0x00400941
  4005d8:	400e1200 	.word	0x400e1200
  4005dc:	40088000 	.word	0x40088000
  4005e0:	400e1000 	.word	0x400e1000

004005e4 <pio_set_peripheral>:
		const uint32_t ul_mask)
{
	uint32_t ul_sr;

	/* Disable interrupts on the pin(s) */
	p_pio->PIO_IDR = ul_mask;
  4005e4:	6442      	str	r2, [r0, #68]	; 0x44

#if (SAM3S || SAM3N || SAM4S || SAM4E || SAM4N || SAM4C || SAMG || SAM4CP || SAM4CM || SAMV71 || SAMV70 || SAME70 || SAMS70)
	switch (ul_type) {
  4005e6:	f1b1 5fc0 	cmp.w	r1, #402653184	; 0x18000000
  4005ea:	d03a      	beq.n	400662 <pio_set_peripheral+0x7e>
  4005ec:	d813      	bhi.n	400616 <pio_set_peripheral+0x32>
  4005ee:	f1b1 6f00 	cmp.w	r1, #134217728	; 0x8000000
  4005f2:	d025      	beq.n	400640 <pio_set_peripheral+0x5c>
  4005f4:	f1b1 5f80 	cmp.w	r1, #268435456	; 0x10000000
  4005f8:	d10a      	bne.n	400610 <pio_set_peripheral+0x2c>

		ul_sr = p_pio->PIO_ABCDSR[1];
		p_pio->PIO_ABCDSR[1] &= (~ul_mask & ul_sr);
		break;
	case PIO_PERIPH_B:
		ul_sr = p_pio->PIO_ABCDSR[0];
  4005fa:	6f03      	ldr	r3, [r0, #112]	; 0x70
		p_pio->PIO_ABCDSR[0] = (ul_mask | ul_sr);
  4005fc:	4313      	orrs	r3, r2
  4005fe:	6703      	str	r3, [r0, #112]	; 0x70

		ul_sr = p_pio->PIO_ABCDSR[1];
  400600:	6f43      	ldr	r3, [r0, #116]	; 0x74
		p_pio->PIO_ABCDSR[1] &= (~ul_mask & ul_sr);
  400602:	6f41      	ldr	r1, [r0, #116]	; 0x74
  400604:	400b      	ands	r3, r1
  400606:	ea23 0302 	bic.w	r3, r3, r2
  40060a:	6743      	str	r3, [r0, #116]	; 0x74
#else
#error "Unsupported device"
#endif

	/* Remove the pins from under the control of PIO */
	p_pio->PIO_PDR = ul_mask;
  40060c:	6042      	str	r2, [r0, #4]
  40060e:	4770      	bx	lr
	switch (ul_type) {
  400610:	2900      	cmp	r1, #0
  400612:	d1fb      	bne.n	40060c <pio_set_peripheral+0x28>
  400614:	4770      	bx	lr
  400616:	f1b1 5f20 	cmp.w	r1, #671088640	; 0x28000000
  40061a:	d021      	beq.n	400660 <pio_set_peripheral+0x7c>
  40061c:	d809      	bhi.n	400632 <pio_set_peripheral+0x4e>
  40061e:	f1b1 5f00 	cmp.w	r1, #536870912	; 0x20000000
  400622:	d1f3      	bne.n	40060c <pio_set_peripheral+0x28>
		ul_sr = p_pio->PIO_ABCDSR[0];
  400624:	6f03      	ldr	r3, [r0, #112]	; 0x70
		p_pio->PIO_ABCDSR[0] = (ul_mask | ul_sr);
  400626:	4313      	orrs	r3, r2
  400628:	6703      	str	r3, [r0, #112]	; 0x70
		ul_sr = p_pio->PIO_ABCDSR[1];
  40062a:	6f43      	ldr	r3, [r0, #116]	; 0x74
		p_pio->PIO_ABCDSR[1] = (ul_mask | ul_sr);
  40062c:	4313      	orrs	r3, r2
  40062e:	6743      	str	r3, [r0, #116]	; 0x74
		break;
  400630:	e7ec      	b.n	40060c <pio_set_peripheral+0x28>
	switch (ul_type) {
  400632:	f1b1 5f40 	cmp.w	r1, #805306368	; 0x30000000
  400636:	d013      	beq.n	400660 <pio_set_peripheral+0x7c>
  400638:	f1b1 5f60 	cmp.w	r1, #939524096	; 0x38000000
  40063c:	d010      	beq.n	400660 <pio_set_peripheral+0x7c>
  40063e:	e7e5      	b.n	40060c <pio_set_peripheral+0x28>
{
  400640:	b410      	push	{r4}
		ul_sr = p_pio->PIO_ABCDSR[0];
  400642:	6f01      	ldr	r1, [r0, #112]	; 0x70
		p_pio->PIO_ABCDSR[0] &= (~ul_mask & ul_sr);
  400644:	6f04      	ldr	r4, [r0, #112]	; 0x70
  400646:	43d3      	mvns	r3, r2
  400648:	4021      	ands	r1, r4
  40064a:	461c      	mov	r4, r3
  40064c:	4019      	ands	r1, r3
  40064e:	6701      	str	r1, [r0, #112]	; 0x70
		ul_sr = p_pio->PIO_ABCDSR[1];
  400650:	6f43      	ldr	r3, [r0, #116]	; 0x74
		p_pio->PIO_ABCDSR[1] &= (~ul_mask & ul_sr);
  400652:	6f41      	ldr	r1, [r0, #116]	; 0x74
  400654:	400b      	ands	r3, r1
  400656:	4023      	ands	r3, r4
  400658:	6743      	str	r3, [r0, #116]	; 0x74
	p_pio->PIO_PDR = ul_mask;
  40065a:	6042      	str	r2, [r0, #4]
}
  40065c:	f85d 4b04 	ldr.w	r4, [sp], #4
  400660:	4770      	bx	lr
		ul_sr = p_pio->PIO_ABCDSR[0];
  400662:	6f03      	ldr	r3, [r0, #112]	; 0x70
		p_pio->PIO_ABCDSR[0] &= (~ul_mask & ul_sr);
  400664:	6f01      	ldr	r1, [r0, #112]	; 0x70
  400666:	400b      	ands	r3, r1
  400668:	ea23 0302 	bic.w	r3, r3, r2
  40066c:	6703      	str	r3, [r0, #112]	; 0x70
		ul_sr = p_pio->PIO_ABCDSR[1];
  40066e:	6f43      	ldr	r3, [r0, #116]	; 0x74
		p_pio->PIO_ABCDSR[1] = (ul_mask | ul_sr);
  400670:	4313      	orrs	r3, r2
  400672:	6743      	str	r3, [r0, #116]	; 0x74
		break;
  400674:	e7ca      	b.n	40060c <pio_set_peripheral+0x28>

00400676 <pio_set_input>:
 * \param p_pio Pointer to a PIO instance.
 * \param ul_mask Interrupt sources bit map.
 */
void pio_disable_interrupt(Pio *p_pio, const uint32_t ul_mask)
{
	p_pio->PIO_IDR = ul_mask;
  400676:	6441      	str	r1, [r0, #68]	; 0x44
	if (ul_pull_up_enable) {
  400678:	f012 0f01 	tst.w	r2, #1
  40067c:	d10d      	bne.n	40069a <pio_set_input+0x24>
		p_pio->PIO_PUDR = ul_mask;
  40067e:	6601      	str	r1, [r0, #96]	; 0x60
	if (ul_attribute & (PIO_DEGLITCH | PIO_DEBOUNCE)) {
  400680:	f012 0f0a 	tst.w	r2, #10
  400684:	d00b      	beq.n	40069e <pio_set_input+0x28>
		p_pio->PIO_IFER = ul_mask;
  400686:	6201      	str	r1, [r0, #32]
	if (ul_attribute & PIO_DEGLITCH) {
  400688:	f012 0f02 	tst.w	r2, #2
  40068c:	d109      	bne.n	4006a2 <pio_set_input+0x2c>
		if (ul_attribute & PIO_DEBOUNCE) {
  40068e:	f012 0f08 	tst.w	r2, #8
  400692:	d008      	beq.n	4006a6 <pio_set_input+0x30>
			p_pio->PIO_IFSCER = ul_mask;
  400694:	f8c0 1084 	str.w	r1, [r0, #132]	; 0x84
  400698:	e005      	b.n	4006a6 <pio_set_input+0x30>
		p_pio->PIO_PUER = ul_mask;
  40069a:	6641      	str	r1, [r0, #100]	; 0x64
  40069c:	e7f0      	b.n	400680 <pio_set_input+0xa>
		p_pio->PIO_IFDR = ul_mask;
  40069e:	6241      	str	r1, [r0, #36]	; 0x24
  4006a0:	e7f2      	b.n	400688 <pio_set_input+0x12>
		p_pio->PIO_IFSCDR = ul_mask;
  4006a2:	f8c0 1080 	str.w	r1, [r0, #128]	; 0x80
	p_pio->PIO_ODR = ul_mask;
  4006a6:	6141      	str	r1, [r0, #20]
	p_pio->PIO_PER = ul_mask;
  4006a8:	6001      	str	r1, [r0, #0]
  4006aa:	4770      	bx	lr

004006ac <pio_set_output>:
{
  4006ac:	b410      	push	{r4}
  4006ae:	9c01      	ldr	r4, [sp, #4]
	p_pio->PIO_IDR = ul_mask;
  4006b0:	6441      	str	r1, [r0, #68]	; 0x44
	if (ul_pull_up_enable) {
  4006b2:	b94c      	cbnz	r4, 4006c8 <pio_set_output+0x1c>
		p_pio->PIO_PUDR = ul_mask;
  4006b4:	6601      	str	r1, [r0, #96]	; 0x60
	if (ul_multidrive_enable) {
  4006b6:	b14b      	cbz	r3, 4006cc <pio_set_output+0x20>
		p_pio->PIO_MDER = ul_mask;
  4006b8:	6501      	str	r1, [r0, #80]	; 0x50
	if (ul_default_level) {
  4006ba:	b94a      	cbnz	r2, 4006d0 <pio_set_output+0x24>
		p_pio->PIO_CODR = ul_mask;
  4006bc:	6341      	str	r1, [r0, #52]	; 0x34
	p_pio->PIO_OER = ul_mask;
  4006be:	6101      	str	r1, [r0, #16]
	p_pio->PIO_PER = ul_mask;
  4006c0:	6001      	str	r1, [r0, #0]
}
  4006c2:	f85d 4b04 	ldr.w	r4, [sp], #4
  4006c6:	4770      	bx	lr
		p_pio->PIO_PUER = ul_mask;
  4006c8:	6641      	str	r1, [r0, #100]	; 0x64
  4006ca:	e7f4      	b.n	4006b6 <pio_set_output+0xa>
		p_pio->PIO_MDDR = ul_mask;
  4006cc:	6541      	str	r1, [r0, #84]	; 0x54
  4006ce:	e7f4      	b.n	4006ba <pio_set_output+0xe>
		p_pio->PIO_SODR = ul_mask;
  4006d0:	6301      	str	r1, [r0, #48]	; 0x30
  4006d2:	e7f4      	b.n	4006be <pio_set_output+0x12>

004006d4 <pio_configure>:
{
  4006d4:	b570      	push	{r4, r5, r6, lr}
  4006d6:	b082      	sub	sp, #8
  4006d8:	4605      	mov	r5, r0
  4006da:	4616      	mov	r6, r2
  4006dc:	461c      	mov	r4, r3
	switch (ul_type) {
  4006de:	f1b1 5f00 	cmp.w	r1, #536870912	; 0x20000000
  4006e2:	d014      	beq.n	40070e <pio_configure+0x3a>
  4006e4:	d90a      	bls.n	4006fc <pio_configure+0x28>
  4006e6:	f1b1 5f40 	cmp.w	r1, #805306368	; 0x30000000
  4006ea:	d024      	beq.n	400736 <pio_configure+0x62>
  4006ec:	f1b1 5f60 	cmp.w	r1, #939524096	; 0x38000000
  4006f0:	d021      	beq.n	400736 <pio_configure+0x62>
  4006f2:	f1b1 5f20 	cmp.w	r1, #671088640	; 0x28000000
  4006f6:	d017      	beq.n	400728 <pio_configure+0x54>
		return 0;
  4006f8:	2000      	movs	r0, #0
  4006fa:	e01a      	b.n	400732 <pio_configure+0x5e>
	switch (ul_type) {
  4006fc:	f1b1 5f80 	cmp.w	r1, #268435456	; 0x10000000
  400700:	d005      	beq.n	40070e <pio_configure+0x3a>
  400702:	f1b1 5fc0 	cmp.w	r1, #402653184	; 0x18000000
  400706:	d002      	beq.n	40070e <pio_configure+0x3a>
  400708:	f1b1 6f00 	cmp.w	r1, #134217728	; 0x8000000
  40070c:	d1f4      	bne.n	4006f8 <pio_configure+0x24>
		pio_set_peripheral(p_pio, ul_type, ul_mask);
  40070e:	4632      	mov	r2, r6
  400710:	4628      	mov	r0, r5
  400712:	4b11      	ldr	r3, [pc, #68]	; (400758 <pio_configure+0x84>)
  400714:	4798      	blx	r3
	if (ul_pull_up_enable) {
  400716:	f014 0f01 	tst.w	r4, #1
  40071a:	d102      	bne.n	400722 <pio_configure+0x4e>
		p_pio->PIO_PUDR = ul_mask;
  40071c:	662e      	str	r6, [r5, #96]	; 0x60
	return 1;
  40071e:	2001      	movs	r0, #1
  400720:	e007      	b.n	400732 <pio_configure+0x5e>
		p_pio->PIO_PUER = ul_mask;
  400722:	666e      	str	r6, [r5, #100]	; 0x64
	return 1;
  400724:	2001      	movs	r0, #1
  400726:	e004      	b.n	400732 <pio_configure+0x5e>
		pio_set_input(p_pio, ul_mask, ul_attribute);
  400728:	461a      	mov	r2, r3
  40072a:	4631      	mov	r1, r6
  40072c:	4b0b      	ldr	r3, [pc, #44]	; (40075c <pio_configure+0x88>)
  40072e:	4798      	blx	r3
	return 1;
  400730:	2001      	movs	r0, #1
}
  400732:	b002      	add	sp, #8
  400734:	bd70      	pop	{r4, r5, r6, pc}
		pio_set_output(p_pio, ul_mask, (ul_type == PIO_OUTPUT_1),
  400736:	f004 0301 	and.w	r3, r4, #1
  40073a:	9300      	str	r3, [sp, #0]
  40073c:	f3c4 0380 	ubfx	r3, r4, #2, #1
  400740:	f1b1 5f60 	cmp.w	r1, #939524096	; 0x38000000
  400744:	bf14      	ite	ne
  400746:	2200      	movne	r2, #0
  400748:	2201      	moveq	r2, #1
  40074a:	4631      	mov	r1, r6
  40074c:	4628      	mov	r0, r5
  40074e:	4c04      	ldr	r4, [pc, #16]	; (400760 <pio_configure+0x8c>)
  400750:	47a0      	blx	r4
	return 1;
  400752:	2001      	movs	r0, #1
		break;
  400754:	e7ed      	b.n	400732 <pio_configure+0x5e>
  400756:	bf00      	nop
  400758:	004005e5 	.word	0x004005e5
  40075c:	00400677 	.word	0x00400677
  400760:	004006ad 	.word	0x004006ad

00400764 <pio_get_interrupt_status>:
 *
 * \return The interrupt status value.
 */
uint32_t pio_get_interrupt_status(const Pio *p_pio)
{
	return p_pio->PIO_ISR;
  400764:	6cc0      	ldr	r0, [r0, #76]	; 0x4c
}
  400766:	4770      	bx	lr

00400768 <pio_get_interrupt_mask>:
 *
 * \return The interrupt mask value.
 */
uint32_t pio_get_interrupt_mask(const Pio *p_pio)
{
	return p_pio->PIO_IMR;
  400768:	6c80      	ldr	r0, [r0, #72]	; 0x48
}
  40076a:	4770      	bx	lr

0040076c <pio_handler_process>:
 *
 * \param p_pio PIO controller base address.
 * \param ul_id PIO controller ID.
 */
void pio_handler_process(Pio *p_pio, uint32_t ul_id)
{
  40076c:	e92d 41f0 	stmdb	sp!, {r4, r5, r6, r7, r8, lr}
  400770:	4604      	mov	r4, r0
  400772:	4688      	mov	r8, r1
	uint32_t status;
	uint32_t i;

	/* Read PIO controller status */
	status = pio_get_interrupt_status(p_pio);
  400774:	4b0e      	ldr	r3, [pc, #56]	; (4007b0 <pio_handler_process+0x44>)
  400776:	4798      	blx	r3
  400778:	4605      	mov	r5, r0
	status &= pio_get_interrupt_mask(p_pio);
  40077a:	4620      	mov	r0, r4
  40077c:	4b0d      	ldr	r3, [pc, #52]	; (4007b4 <pio_handler_process+0x48>)
  40077e:	4798      	blx	r3

	/* Check pending events */
	if (status != 0) {
  400780:	4005      	ands	r5, r0
  400782:	d013      	beq.n	4007ac <pio_handler_process+0x40>
  400784:	4c0c      	ldr	r4, [pc, #48]	; (4007b8 <pio_handler_process+0x4c>)
  400786:	f104 0660 	add.w	r6, r4, #96	; 0x60
  40078a:	e003      	b.n	400794 <pio_handler_process+0x28>
							gs_interrupt_sources[i].mask);
					status &= ~(gs_interrupt_sources[i].mask);
				}
			}
			i++;
			if (i >= MAX_INTERRUPT_SOURCES) {
  40078c:	42b4      	cmp	r4, r6
  40078e:	d00d      	beq.n	4007ac <pio_handler_process+0x40>
  400790:	3410      	adds	r4, #16
		while (status != 0) {
  400792:	b15d      	cbz	r5, 4007ac <pio_handler_process+0x40>
			if (gs_interrupt_sources[i].id == ul_id) {
  400794:	6820      	ldr	r0, [r4, #0]
  400796:	4540      	cmp	r0, r8
  400798:	d1f8      	bne.n	40078c <pio_handler_process+0x20>
				if ((status & gs_interrupt_sources[i].mask) != 0) {
  40079a:	6861      	ldr	r1, [r4, #4]
  40079c:	4229      	tst	r1, r5
  40079e:	d0f5      	beq.n	40078c <pio_handler_process+0x20>
					gs_interrupt_sources[i].handler(gs_interrupt_sources[i].id,
  4007a0:	68e3      	ldr	r3, [r4, #12]
  4007a2:	4798      	blx	r3
					status &= ~(gs_interrupt_sources[i].mask);
  4007a4:	6863      	ldr	r3, [r4, #4]
  4007a6:	ea25 0503 	bic.w	r5, r5, r3
  4007aa:	e7ef      	b.n	40078c <pio_handler_process+0x20>
  4007ac:	e8bd 81f0 	ldmia.w	sp!, {r4, r5, r6, r7, r8, pc}
  4007b0:	00400765 	.word	0x00400765
  4007b4:	00400769 	.word	0x00400769
  4007b8:	20400454 	.word	0x20400454

004007bc <PIOA_Handler>:
/**
 * \brief Parallel IO Controller A interrupt handler.
 * Redefined PIOA interrupt handler for NVIC interrupt table.
 */
void PIOA_Handler(void)
{
  4007bc:	b508      	push	{r3, lr}
	pio_handler_process(PIOA, ID_PIOA);
  4007be:	210a      	movs	r1, #10
  4007c0:	4801      	ldr	r0, [pc, #4]	; (4007c8 <PIOA_Handler+0xc>)
  4007c2:	4b02      	ldr	r3, [pc, #8]	; (4007cc <PIOA_Handler+0x10>)
  4007c4:	4798      	blx	r3
  4007c6:	bd08      	pop	{r3, pc}
  4007c8:	400e0e00 	.word	0x400e0e00
  4007cc:	0040076d 	.word	0x0040076d

004007d0 <PIOB_Handler>:
/**
 * \brief Parallel IO Controller B interrupt handler
 * Redefined PIOB interrupt handler for NVIC interrupt table.
 */
void PIOB_Handler(void)
{
  4007d0:	b508      	push	{r3, lr}
    pio_handler_process(PIOB, ID_PIOB);
  4007d2:	210b      	movs	r1, #11
  4007d4:	4801      	ldr	r0, [pc, #4]	; (4007dc <PIOB_Handler+0xc>)
  4007d6:	4b02      	ldr	r3, [pc, #8]	; (4007e0 <PIOB_Handler+0x10>)
  4007d8:	4798      	blx	r3
  4007da:	bd08      	pop	{r3, pc}
  4007dc:	400e1000 	.word	0x400e1000
  4007e0:	0040076d 	.word	0x0040076d

004007e4 <PIOC_Handler>:
/**
 * \brief Parallel IO Controller C interrupt handler.
 * Redefined PIOC interrupt handler for NVIC interrupt table.
 */
void PIOC_Handler(void)
{
  4007e4:	b508      	push	{r3, lr}
	pio_handler_process(PIOC, ID_PIOC);
  4007e6:	210c      	movs	r1, #12
  4007e8:	4801      	ldr	r0, [pc, #4]	; (4007f0 <PIOC_Handler+0xc>)
  4007ea:	4b02      	ldr	r3, [pc, #8]	; (4007f4 <PIOC_Handler+0x10>)
  4007ec:	4798      	blx	r3
  4007ee:	bd08      	pop	{r3, pc}
  4007f0:	400e1200 	.word	0x400e1200
  4007f4:	0040076d 	.word	0x0040076d

004007f8 <PIOD_Handler>:
/**
 * \brief Parallel IO Controller D interrupt handler.
 * Redefined PIOD interrupt handler for NVIC interrupt table.
 */
void PIOD_Handler(void)
{
  4007f8:	b508      	push	{r3, lr}
	pio_handler_process(PIOD, ID_PIOD);
  4007fa:	2110      	movs	r1, #16
  4007fc:	4801      	ldr	r0, [pc, #4]	; (400804 <PIOD_Handler+0xc>)
  4007fe:	4b02      	ldr	r3, [pc, #8]	; (400808 <PIOD_Handler+0x10>)
  400800:	4798      	blx	r3
  400802:	bd08      	pop	{r3, pc}
  400804:	400e1400 	.word	0x400e1400
  400808:	0040076d 	.word	0x0040076d

0040080c <PIOE_Handler>:
/**
 * \brief Parallel IO Controller E interrupt handler.
 * Redefined PIOE interrupt handler for NVIC interrupt table.
 */
void PIOE_Handler(void)
{
  40080c:	b508      	push	{r3, lr}
	pio_handler_process(PIOE, ID_PIOE);
  40080e:	2111      	movs	r1, #17
  400810:	4801      	ldr	r0, [pc, #4]	; (400818 <PIOE_Handler+0xc>)
  400812:	4b02      	ldr	r3, [pc, #8]	; (40081c <PIOE_Handler+0x10>)
  400814:	4798      	blx	r3
  400816:	bd08      	pop	{r3, pc}
  400818:	400e1600 	.word	0x400e1600
  40081c:	0040076d 	.word	0x0040076d

00400820 <pmc_mck_set_division>:
 *
 * \param ul_div Division value.
 */
void pmc_mck_set_division(uint32_t ul_div)
{
	switch (ul_div) {
  400820:	2803      	cmp	r0, #3
  400822:	d011      	beq.n	400848 <pmc_mck_set_division+0x28>
  400824:	2804      	cmp	r0, #4
  400826:	d012      	beq.n	40084e <pmc_mck_set_division+0x2e>
		case 1:
			ul_div = PMC_MCKR_MDIV_EQ_PCK;
  400828:	2802      	cmp	r0, #2
  40082a:	bf0c      	ite	eq
  40082c:	f44f 7180 	moveq.w	r1, #256	; 0x100
  400830:	2100      	movne	r1, #0
		default:
			ul_div = PMC_MCKR_MDIV_EQ_PCK;
			break;
	}
	PMC->PMC_MCKR =
			(PMC->PMC_MCKR & (~PMC_MCKR_MDIV_Msk)) | ul_div;
  400832:	4a08      	ldr	r2, [pc, #32]	; (400854 <pmc_mck_set_division+0x34>)
  400834:	6b13      	ldr	r3, [r2, #48]	; 0x30
  400836:	f423 7340 	bic.w	r3, r3, #768	; 0x300
  40083a:	430b      	orrs	r3, r1
	PMC->PMC_MCKR =
  40083c:	6313      	str	r3, [r2, #48]	; 0x30
	while (!(PMC->PMC_SR & PMC_SR_MCKRDY));
  40083e:	6e93      	ldr	r3, [r2, #104]	; 0x68
  400840:	f013 0f08 	tst.w	r3, #8
  400844:	d0fb      	beq.n	40083e <pmc_mck_set_division+0x1e>
}
  400846:	4770      	bx	lr
			ul_div = PMC_MCKR_MDIV_PCK_DIV3;
  400848:	f44f 7140 	mov.w	r1, #768	; 0x300
			break;
  40084c:	e7f1      	b.n	400832 <pmc_mck_set_division+0x12>
			ul_div = PMC_MCKR_MDIV_PCK_DIV4;
  40084e:	f44f 7100 	mov.w	r1, #512	; 0x200
			break;
  400852:	e7ee      	b.n	400832 <pmc_mck_set_division+0x12>
  400854:	400e0600 	.word	0x400e0600

00400858 <pmc_switch_mck_to_pllack>:
 */
uint32_t pmc_switch_mck_to_pllack(uint32_t ul_pres)
{
	uint32_t ul_timeout;

	PMC->PMC_MCKR = (PMC->PMC_MCKR & (~PMC_MCKR_PRES_Msk)) | ul_pres;
  400858:	4a17      	ldr	r2, [pc, #92]	; (4008b8 <pmc_switch_mck_to_pllack+0x60>)
  40085a:	6b13      	ldr	r3, [r2, #48]	; 0x30
  40085c:	f023 0370 	bic.w	r3, r3, #112	; 0x70
  400860:	4318      	orrs	r0, r3
  400862:	6310      	str	r0, [r2, #48]	; 0x30
	for (ul_timeout = PMC_TIMEOUT; !(PMC->PMC_SR & PMC_SR_MCKRDY);
  400864:	6e93      	ldr	r3, [r2, #104]	; 0x68
  400866:	f013 0f08 	tst.w	r3, #8
  40086a:	d10a      	bne.n	400882 <pmc_switch_mck_to_pllack+0x2a>
  40086c:	f44f 5380 	mov.w	r3, #4096	; 0x1000
  400870:	4911      	ldr	r1, [pc, #68]	; (4008b8 <pmc_switch_mck_to_pllack+0x60>)
  400872:	6e8a      	ldr	r2, [r1, #104]	; 0x68
  400874:	f012 0f08 	tst.w	r2, #8
  400878:	d103      	bne.n	400882 <pmc_switch_mck_to_pllack+0x2a>
			--ul_timeout) {
		if (ul_timeout == 0) {
  40087a:	3b01      	subs	r3, #1
  40087c:	d1f9      	bne.n	400872 <pmc_switch_mck_to_pllack+0x1a>
			return 1;
  40087e:	2001      	movs	r0, #1
  400880:	4770      	bx	lr
		}
	}

	PMC->PMC_MCKR = (PMC->PMC_MCKR & (~PMC_MCKR_CSS_Msk)) |
  400882:	4a0d      	ldr	r2, [pc, #52]	; (4008b8 <pmc_switch_mck_to_pllack+0x60>)
  400884:	6b13      	ldr	r3, [r2, #48]	; 0x30
  400886:	f023 0303 	bic.w	r3, r3, #3
  40088a:	f043 0302 	orr.w	r3, r3, #2
  40088e:	6313      	str	r3, [r2, #48]	; 0x30
			PMC_MCKR_CSS_PLLA_CLK;

	for (ul_timeout = PMC_TIMEOUT; !(PMC->PMC_SR & PMC_SR_MCKRDY);
  400890:	6e93      	ldr	r3, [r2, #104]	; 0x68
  400892:	f013 0f08 	tst.w	r3, #8
  400896:	d10a      	bne.n	4008ae <pmc_switch_mck_to_pllack+0x56>
  400898:	f44f 5380 	mov.w	r3, #4096	; 0x1000
  40089c:	4906      	ldr	r1, [pc, #24]	; (4008b8 <pmc_switch_mck_to_pllack+0x60>)
  40089e:	6e8a      	ldr	r2, [r1, #104]	; 0x68
  4008a0:	f012 0f08 	tst.w	r2, #8
  4008a4:	d105      	bne.n	4008b2 <pmc_switch_mck_to_pllack+0x5a>
			--ul_timeout) {
		if (ul_timeout == 0) {
  4008a6:	3b01      	subs	r3, #1
  4008a8:	d1f9      	bne.n	40089e <pmc_switch_mck_to_pllack+0x46>
			return 1;
  4008aa:	2001      	movs	r0, #1
		}
	}

	return 0;
}
  4008ac:	4770      	bx	lr
	return 0;
  4008ae:	2000      	movs	r0, #0
  4008b0:	4770      	bx	lr
  4008b2:	2000      	movs	r0, #0
  4008b4:	4770      	bx	lr
  4008b6:	bf00      	nop
  4008b8:	400e0600 	.word	0x400e0600

004008bc <pmc_switch_mainck_to_xtal>:
 */
void pmc_switch_mainck_to_xtal(uint32_t ul_bypass,
		uint32_t ul_xtal_startup_time)
{
	/* Enable Main Xtal oscillator */
	if (ul_bypass) {
  4008bc:	b9a0      	cbnz	r0, 4008e8 <pmc_switch_mainck_to_xtal+0x2c>
		PMC->CKGR_MOR = (PMC->CKGR_MOR & ~CKGR_MOR_MOSCXTEN) |
				CKGR_MOR_KEY_PASSWD | CKGR_MOR_MOSCXTBY |
				CKGR_MOR_MOSCSEL;
	} else {
		PMC->CKGR_MOR = (PMC->CKGR_MOR & ~CKGR_MOR_MOSCXTBY) |
  4008be:	480e      	ldr	r0, [pc, #56]	; (4008f8 <pmc_switch_mainck_to_xtal+0x3c>)
  4008c0:	6a03      	ldr	r3, [r0, #32]
				CKGR_MOR_KEY_PASSWD | CKGR_MOR_MOSCXTEN |
				CKGR_MOR_MOSCXTST(ul_xtal_startup_time);
  4008c2:	0209      	lsls	r1, r1, #8
  4008c4:	b289      	uxth	r1, r1
				CKGR_MOR_KEY_PASSWD | CKGR_MOR_MOSCXTEN |
  4008c6:	4a0d      	ldr	r2, [pc, #52]	; (4008fc <pmc_switch_mainck_to_xtal+0x40>)
  4008c8:	401a      	ands	r2, r3
  4008ca:	4b0d      	ldr	r3, [pc, #52]	; (400900 <pmc_switch_mainck_to_xtal+0x44>)
  4008cc:	4313      	orrs	r3, r2
  4008ce:	4319      	orrs	r1, r3
		PMC->CKGR_MOR = (PMC->CKGR_MOR & ~CKGR_MOR_MOSCXTBY) |
  4008d0:	6201      	str	r1, [r0, #32]
		/* Wait the Xtal to stabilize */
		while (!(PMC->PMC_SR & PMC_SR_MOSCXTS));
  4008d2:	4602      	mov	r2, r0
  4008d4:	6e93      	ldr	r3, [r2, #104]	; 0x68
  4008d6:	f013 0f01 	tst.w	r3, #1
  4008da:	d0fb      	beq.n	4008d4 <pmc_switch_mainck_to_xtal+0x18>

		PMC->CKGR_MOR |= CKGR_MOR_KEY_PASSWD | CKGR_MOR_MOSCSEL;
  4008dc:	4a06      	ldr	r2, [pc, #24]	; (4008f8 <pmc_switch_mainck_to_xtal+0x3c>)
  4008de:	6a11      	ldr	r1, [r2, #32]
  4008e0:	4b08      	ldr	r3, [pc, #32]	; (400904 <pmc_switch_mainck_to_xtal+0x48>)
  4008e2:	430b      	orrs	r3, r1
  4008e4:	6213      	str	r3, [r2, #32]
  4008e6:	4770      	bx	lr
		PMC->CKGR_MOR = (PMC->CKGR_MOR & ~CKGR_MOR_MOSCXTEN) |
  4008e8:	4903      	ldr	r1, [pc, #12]	; (4008f8 <pmc_switch_mainck_to_xtal+0x3c>)
  4008ea:	6a0b      	ldr	r3, [r1, #32]
				CKGR_MOR_KEY_PASSWD | CKGR_MOR_MOSCXTBY |
  4008ec:	4a06      	ldr	r2, [pc, #24]	; (400908 <pmc_switch_mainck_to_xtal+0x4c>)
  4008ee:	401a      	ands	r2, r3
  4008f0:	4b06      	ldr	r3, [pc, #24]	; (40090c <pmc_switch_mainck_to_xtal+0x50>)
  4008f2:	4313      	orrs	r3, r2
		PMC->CKGR_MOR = (PMC->CKGR_MOR & ~CKGR_MOR_MOSCXTEN) |
  4008f4:	620b      	str	r3, [r1, #32]
  4008f6:	4770      	bx	lr
  4008f8:	400e0600 	.word	0x400e0600
  4008fc:	ffc8fffc 	.word	0xffc8fffc
  400900:	00370001 	.word	0x00370001
  400904:	01370000 	.word	0x01370000
  400908:	fec8fffc 	.word	0xfec8fffc
  40090c:	01370002 	.word	0x01370002

00400910 <pmc_osc_is_ready_mainck>:
 * \retval 1 Xtal is ready.
 * \retval 0 Xtal is not ready.
 */
uint32_t pmc_osc_is_ready_mainck(void)
{
	return PMC->PMC_SR & PMC_SR_MOSCSELS;
  400910:	4b02      	ldr	r3, [pc, #8]	; (40091c <pmc_osc_is_ready_mainck+0xc>)
  400912:	6e98      	ldr	r0, [r3, #104]	; 0x68
}
  400914:	f400 3080 	and.w	r0, r0, #65536	; 0x10000
  400918:	4770      	bx	lr
  40091a:	bf00      	nop
  40091c:	400e0600 	.word	0x400e0600

00400920 <pmc_disable_pllack>:
void pmc_disable_pllack(void)
{
#if (SAM4C || SAM4CM || SAM4CP || SAMG)
	PMC->CKGR_PLLAR = CKGR_PLLAR_MULA(0);
#else
	PMC->CKGR_PLLAR = CKGR_PLLAR_ONE | CKGR_PLLAR_MULA(0);
  400920:	f04f 5200 	mov.w	r2, #536870912	; 0x20000000
  400924:	4b01      	ldr	r3, [pc, #4]	; (40092c <pmc_disable_pllack+0xc>)
  400926:	629a      	str	r2, [r3, #40]	; 0x28
  400928:	4770      	bx	lr
  40092a:	bf00      	nop
  40092c:	400e0600 	.word	0x400e0600

00400930 <pmc_is_locked_pllack>:
 * \retval 0 Not locked.
 * \retval 1 Locked.
 */
uint32_t pmc_is_locked_pllack(void)
{
	return (PMC->PMC_SR & PMC_SR_LOCKA);
  400930:	4b02      	ldr	r3, [pc, #8]	; (40093c <pmc_is_locked_pllack+0xc>)
  400932:	6e98      	ldr	r0, [r3, #104]	; 0x68
}
  400934:	f000 0002 	and.w	r0, r0, #2
  400938:	4770      	bx	lr
  40093a:	bf00      	nop
  40093c:	400e0600 	.word	0x400e0600

00400940 <pmc_enable_periph_clk>:
 * \retval 0 Success.
 * \retval 1 Invalid parameter.
 */
uint32_t pmc_enable_periph_clk(uint32_t ul_id)
{
	if (ul_id > MAX_PERIPH_ID) {
  400940:	283f      	cmp	r0, #63	; 0x3f
  400942:	d81e      	bhi.n	400982 <pmc_enable_periph_clk+0x42>
		return 1;
	}

	if (ul_id < 32) {
  400944:	281f      	cmp	r0, #31
  400946:	d80c      	bhi.n	400962 <pmc_enable_periph_clk+0x22>
		if ((PMC->PMC_PCSR0 & (1u << ul_id)) != (1u << ul_id)) {
  400948:	4b11      	ldr	r3, [pc, #68]	; (400990 <pmc_enable_periph_clk+0x50>)
  40094a:	699a      	ldr	r2, [r3, #24]
  40094c:	2301      	movs	r3, #1
  40094e:	4083      	lsls	r3, r0
  400950:	4393      	bics	r3, r2
  400952:	d018      	beq.n	400986 <pmc_enable_periph_clk+0x46>
			PMC->PMC_PCER0 = 1 << ul_id;
  400954:	2301      	movs	r3, #1
  400956:	fa03 f000 	lsl.w	r0, r3, r0
  40095a:	4b0d      	ldr	r3, [pc, #52]	; (400990 <pmc_enable_periph_clk+0x50>)
  40095c:	6118      	str	r0, [r3, #16]
			PMC->PMC_PCER1 = 1 << ul_id;
		}
#endif
	}

	return 0;
  40095e:	2000      	movs	r0, #0
  400960:	4770      	bx	lr
		ul_id -= 32;
  400962:	3820      	subs	r0, #32
		if ((PMC->PMC_PCSR1 & (1u << ul_id)) != (1u << ul_id)) {
  400964:	4b0a      	ldr	r3, [pc, #40]	; (400990 <pmc_enable_periph_clk+0x50>)
  400966:	f8d3 2108 	ldr.w	r2, [r3, #264]	; 0x108
  40096a:	2301      	movs	r3, #1
  40096c:	4083      	lsls	r3, r0
  40096e:	4393      	bics	r3, r2
  400970:	d00b      	beq.n	40098a <pmc_enable_periph_clk+0x4a>
			PMC->PMC_PCER1 = 1 << ul_id;
  400972:	2301      	movs	r3, #1
  400974:	fa03 f000 	lsl.w	r0, r3, r0
  400978:	4b05      	ldr	r3, [pc, #20]	; (400990 <pmc_enable_periph_clk+0x50>)
  40097a:	f8c3 0100 	str.w	r0, [r3, #256]	; 0x100
	return 0;
  40097e:	2000      	movs	r0, #0
  400980:	4770      	bx	lr
		return 1;
  400982:	2001      	movs	r0, #1
  400984:	4770      	bx	lr
	return 0;
  400986:	2000      	movs	r0, #0
  400988:	4770      	bx	lr
  40098a:	2000      	movs	r0, #0
}
  40098c:	4770      	bx	lr
  40098e:	bf00      	nop
  400990:	400e0600 	.word	0x400e0600

00400994 <Dummy_Handler>:

/**
 * \brief Default interrupt handler for unused IRQs.
 */
void Dummy_Handler(void)
{
  400994:	e7fe      	b.n	400994 <Dummy_Handler>
	...

00400998 <Reset_Handler>:
{
  400998:	b500      	push	{lr}
  40099a:	b083      	sub	sp, #12
        if (pSrc != pDest) {
  40099c:	4b25      	ldr	r3, [pc, #148]	; (400a34 <Reset_Handler+0x9c>)
  40099e:	4a26      	ldr	r2, [pc, #152]	; (400a38 <Reset_Handler+0xa0>)
  4009a0:	429a      	cmp	r2, r3
  4009a2:	d010      	beq.n	4009c6 <Reset_Handler+0x2e>
                for (; pDest < &_erelocate;) {
  4009a4:	4b25      	ldr	r3, [pc, #148]	; (400a3c <Reset_Handler+0xa4>)
  4009a6:	4a23      	ldr	r2, [pc, #140]	; (400a34 <Reset_Handler+0x9c>)
  4009a8:	429a      	cmp	r2, r3
  4009aa:	d20c      	bcs.n	4009c6 <Reset_Handler+0x2e>
  4009ac:	3b01      	subs	r3, #1
  4009ae:	1a9b      	subs	r3, r3, r2
  4009b0:	f023 0303 	bic.w	r3, r3, #3
  4009b4:	3304      	adds	r3, #4
  4009b6:	4413      	add	r3, r2
  4009b8:	491f      	ldr	r1, [pc, #124]	; (400a38 <Reset_Handler+0xa0>)
                        *pDest++ = *pSrc++;
  4009ba:	f851 0b04 	ldr.w	r0, [r1], #4
  4009be:	f842 0b04 	str.w	r0, [r2], #4
                for (; pDest < &_erelocate;) {
  4009c2:	429a      	cmp	r2, r3
  4009c4:	d1f9      	bne.n	4009ba <Reset_Handler+0x22>
        for (pDest = &_szero; pDest < &_ezero;) {
  4009c6:	4b1e      	ldr	r3, [pc, #120]	; (400a40 <Reset_Handler+0xa8>)
  4009c8:	4a1e      	ldr	r2, [pc, #120]	; (400a44 <Reset_Handler+0xac>)
  4009ca:	429a      	cmp	r2, r3
  4009cc:	d20a      	bcs.n	4009e4 <Reset_Handler+0x4c>
  4009ce:	3b01      	subs	r3, #1
  4009d0:	1a9b      	subs	r3, r3, r2
  4009d2:	f023 0303 	bic.w	r3, r3, #3
  4009d6:	3304      	adds	r3, #4
  4009d8:	4413      	add	r3, r2
                *pDest++ = 0;
  4009da:	2100      	movs	r1, #0
  4009dc:	f842 1b04 	str.w	r1, [r2], #4
        for (pDest = &_szero; pDest < &_ezero;) {
  4009e0:	4293      	cmp	r3, r2
  4009e2:	d1fb      	bne.n	4009dc <Reset_Handler+0x44>
        SCB->VTOR = ((uint32_t) pSrc & SCB_VTOR_TBLOFF_Msk);
  4009e4:	4a18      	ldr	r2, [pc, #96]	; (400a48 <Reset_Handler+0xb0>)
  4009e6:	4b19      	ldr	r3, [pc, #100]	; (400a4c <Reset_Handler+0xb4>)
  4009e8:	f023 037f 	bic.w	r3, r3, #127	; 0x7f
  4009ec:	6093      	str	r3, [r2, #8]
 */
__attribute__( ( always_inline ) ) __STATIC_INLINE uint32_t __get_PRIMASK(void)
{
  uint32_t result;

  __ASM volatile ("MRS %0, primask" : "=r" (result) );
  4009ee:	f3ef 8310 	mrs	r3, PRIMASK
static volatile uint32_t cpu_irq_critical_section_counter;
static volatile bool     cpu_irq_prev_interrupt_state;

static inline irqflags_t cpu_irq_save(void)
{
	volatile irqflags_t flags = cpu_irq_is_enabled();
  4009f2:	fab3 f383 	clz	r3, r3
  4009f6:	095b      	lsrs	r3, r3, #5
  4009f8:	9301      	str	r3, [sp, #4]
  __ASM volatile ("cpsid i" : : : "memory");
  4009fa:	b672      	cpsid	i
  __ASM volatile ("dmb");
  4009fc:	f3bf 8f5f 	dmb	sy
	cpu_irq_disable();
  400a00:	2200      	movs	r2, #0
  400a02:	4b13      	ldr	r3, [pc, #76]	; (400a50 <Reset_Handler+0xb8>)
  400a04:	701a      	strb	r2, [r3, #0]
	return flags;
  400a06:	9901      	ldr	r1, [sp, #4]
 */
__always_inline static void fpu_enable(void)
{
	irqflags_t flags;
	flags = cpu_irq_save();
	REG_CPACR |=  (0xFu << 20);
  400a08:	4a12      	ldr	r2, [pc, #72]	; (400a54 <Reset_Handler+0xbc>)
  400a0a:	6813      	ldr	r3, [r2, #0]
  400a0c:	f443 0370 	orr.w	r3, r3, #15728640	; 0xf00000
  400a10:	6013      	str	r3, [r2, #0]
  __ASM volatile ("dsb");
  400a12:	f3bf 8f4f 	dsb	sy
  __ASM volatile ("isb");
  400a16:	f3bf 8f6f 	isb	sy
	return (flags);
}

static inline void cpu_irq_restore(irqflags_t flags)
{
	if (cpu_irq_is_enabled_flags(flags))
  400a1a:	b129      	cbz	r1, 400a28 <Reset_Handler+0x90>
		cpu_irq_enable();
  400a1c:	2201      	movs	r2, #1
  400a1e:	4b0c      	ldr	r3, [pc, #48]	; (400a50 <Reset_Handler+0xb8>)
  400a20:	701a      	strb	r2, [r3, #0]
  __ASM volatile ("dmb");
  400a22:	f3bf 8f5f 	dmb	sy
  __ASM volatile ("cpsie i" : : : "memory");
  400a26:	b662      	cpsie	i
        __libc_init_array();
  400a28:	4b0b      	ldr	r3, [pc, #44]	; (400a58 <Reset_Handler+0xc0>)
  400a2a:	4798      	blx	r3
        main();
  400a2c:	4b0b      	ldr	r3, [pc, #44]	; (400a5c <Reset_Handler+0xc4>)
  400a2e:	4798      	blx	r3
  400a30:	e7fe      	b.n	400a30 <Reset_Handler+0x98>
  400a32:	bf00      	nop
  400a34:	20400000 	.word	0x20400000
  400a38:	00401410 	.word	0x00401410
  400a3c:	20400434 	.word	0x20400434
  400a40:	204004ec 	.word	0x204004ec
  400a44:	20400434 	.word	0x20400434
  400a48:	e000ed00 	.word	0xe000ed00
  400a4c:	00400000 	.word	0x00400000
  400a50:	20400000 	.word	0x20400000
  400a54:	e000ed88 	.word	0xe000ed88
  400a58:	00401099 	.word	0x00401099
  400a5c:	00400fd1 	.word	0x00400fd1

00400a60 <SystemCoreClockUpdate>:
}

void SystemCoreClockUpdate( void )
{
  /* Determine clock frequency according to clock register values */
  switch (PMC->PMC_MCKR & (uint32_t) PMC_MCKR_CSS_Msk)
  400a60:	4b3b      	ldr	r3, [pc, #236]	; (400b50 <SystemCoreClockUpdate+0xf0>)
  400a62:	6b1b      	ldr	r3, [r3, #48]	; 0x30
  400a64:	f003 0303 	and.w	r3, r3, #3
  400a68:	2b01      	cmp	r3, #1
  400a6a:	d01d      	beq.n	400aa8 <SystemCoreClockUpdate+0x48>
  400a6c:	b183      	cbz	r3, 400a90 <SystemCoreClockUpdate+0x30>
  400a6e:	2b02      	cmp	r3, #2
  400a70:	d036      	beq.n	400ae0 <SystemCoreClockUpdate+0x80>

    default:
    break;
  }

  if ( (PMC->PMC_MCKR & PMC_MCKR_PRES_Msk) == PMC_MCKR_PRES_CLK_3 )
  400a72:	4b37      	ldr	r3, [pc, #220]	; (400b50 <SystemCoreClockUpdate+0xf0>)
  400a74:	6b1b      	ldr	r3, [r3, #48]	; 0x30
  400a76:	f003 0370 	and.w	r3, r3, #112	; 0x70
  400a7a:	2b70      	cmp	r3, #112	; 0x70
  400a7c:	d05f      	beq.n	400b3e <SystemCoreClockUpdate+0xde>
  {
    SystemCoreClock /= 3U;
  }
  else
  {
    SystemCoreClock >>= ((PMC->PMC_MCKR & PMC_MCKR_PRES_Msk) >> PMC_MCKR_PRES_Pos);
  400a7e:	4b34      	ldr	r3, [pc, #208]	; (400b50 <SystemCoreClockUpdate+0xf0>)
  400a80:	6b1a      	ldr	r2, [r3, #48]	; 0x30
  400a82:	4934      	ldr	r1, [pc, #208]	; (400b54 <SystemCoreClockUpdate+0xf4>)
  400a84:	f3c2 1202 	ubfx	r2, r2, #4, #3
  400a88:	680b      	ldr	r3, [r1, #0]
  400a8a:	40d3      	lsrs	r3, r2
  400a8c:	600b      	str	r3, [r1, #0]
  400a8e:	4770      	bx	lr
      if ( SUPC->SUPC_SR & SUPC_SR_OSCSEL )
  400a90:	4b31      	ldr	r3, [pc, #196]	; (400b58 <SystemCoreClockUpdate+0xf8>)
  400a92:	695b      	ldr	r3, [r3, #20]
  400a94:	f013 0f80 	tst.w	r3, #128	; 0x80
        SystemCoreClock = CHIP_FREQ_XTAL_32K;
  400a98:	bf14      	ite	ne
  400a9a:	f44f 4200 	movne.w	r2, #32768	; 0x8000
        SystemCoreClock = CHIP_FREQ_SLCK_RC;
  400a9e:	f44f 42fa 	moveq.w	r2, #32000	; 0x7d00
  400aa2:	4b2c      	ldr	r3, [pc, #176]	; (400b54 <SystemCoreClockUpdate+0xf4>)
  400aa4:	601a      	str	r2, [r3, #0]
  400aa6:	e7e4      	b.n	400a72 <SystemCoreClockUpdate+0x12>
      if ( PMC->CKGR_MOR & CKGR_MOR_MOSCSEL )
  400aa8:	4b29      	ldr	r3, [pc, #164]	; (400b50 <SystemCoreClockUpdate+0xf0>)
  400aaa:	6a1b      	ldr	r3, [r3, #32]
  400aac:	f013 7f80 	tst.w	r3, #16777216	; 0x1000000
  400ab0:	d003      	beq.n	400aba <SystemCoreClockUpdate+0x5a>
        SystemCoreClock = CHIP_FREQ_XTAL_12M;
  400ab2:	4a2a      	ldr	r2, [pc, #168]	; (400b5c <SystemCoreClockUpdate+0xfc>)
  400ab4:	4b27      	ldr	r3, [pc, #156]	; (400b54 <SystemCoreClockUpdate+0xf4>)
  400ab6:	601a      	str	r2, [r3, #0]
  400ab8:	e7db      	b.n	400a72 <SystemCoreClockUpdate+0x12>
        SystemCoreClock = CHIP_FREQ_MAINCK_RC_4MHZ;
  400aba:	4a29      	ldr	r2, [pc, #164]	; (400b60 <SystemCoreClockUpdate+0x100>)
  400abc:	4b25      	ldr	r3, [pc, #148]	; (400b54 <SystemCoreClockUpdate+0xf4>)
  400abe:	601a      	str	r2, [r3, #0]
        switch ( PMC->CKGR_MOR & CKGR_MOR_MOSCRCF_Msk )
  400ac0:	4b23      	ldr	r3, [pc, #140]	; (400b50 <SystemCoreClockUpdate+0xf0>)
  400ac2:	6a1b      	ldr	r3, [r3, #32]
  400ac4:	f003 0370 	and.w	r3, r3, #112	; 0x70
  400ac8:	2b10      	cmp	r3, #16
  400aca:	d005      	beq.n	400ad8 <SystemCoreClockUpdate+0x78>
  400acc:	2b20      	cmp	r3, #32
  400ace:	d1d0      	bne.n	400a72 <SystemCoreClockUpdate+0x12>
            SystemCoreClock *= 3U;
  400ad0:	4a22      	ldr	r2, [pc, #136]	; (400b5c <SystemCoreClockUpdate+0xfc>)
  400ad2:	4b20      	ldr	r3, [pc, #128]	; (400b54 <SystemCoreClockUpdate+0xf4>)
  400ad4:	601a      	str	r2, [r3, #0]
          break;
  400ad6:	e7cc      	b.n	400a72 <SystemCoreClockUpdate+0x12>
            SystemCoreClock *= 2U;
  400ad8:	4a22      	ldr	r2, [pc, #136]	; (400b64 <SystemCoreClockUpdate+0x104>)
  400ada:	4b1e      	ldr	r3, [pc, #120]	; (400b54 <SystemCoreClockUpdate+0xf4>)
  400adc:	601a      	str	r2, [r3, #0]
          break;
  400ade:	e7c8      	b.n	400a72 <SystemCoreClockUpdate+0x12>
      if ( PMC->CKGR_MOR & CKGR_MOR_MOSCSEL )
  400ae0:	4b1b      	ldr	r3, [pc, #108]	; (400b50 <SystemCoreClockUpdate+0xf0>)
  400ae2:	6a1b      	ldr	r3, [r3, #32]
  400ae4:	f013 7f80 	tst.w	r3, #16777216	; 0x1000000
  400ae8:	d016      	beq.n	400b18 <SystemCoreClockUpdate+0xb8>
        SystemCoreClock = CHIP_FREQ_XTAL_12M ;
  400aea:	4a1c      	ldr	r2, [pc, #112]	; (400b5c <SystemCoreClockUpdate+0xfc>)
  400aec:	4b19      	ldr	r3, [pc, #100]	; (400b54 <SystemCoreClockUpdate+0xf4>)
  400aee:	601a      	str	r2, [r3, #0]
      if ( (uint32_t) (PMC->PMC_MCKR & (uint32_t) PMC_MCKR_CSS_Msk) == PMC_MCKR_CSS_PLLA_CLK )
  400af0:	4b17      	ldr	r3, [pc, #92]	; (400b50 <SystemCoreClockUpdate+0xf0>)
  400af2:	6b1b      	ldr	r3, [r3, #48]	; 0x30
  400af4:	f003 0303 	and.w	r3, r3, #3
  400af8:	2b02      	cmp	r3, #2
  400afa:	d1ba      	bne.n	400a72 <SystemCoreClockUpdate+0x12>
        SystemCoreClock *= ((((PMC->CKGR_PLLAR) & CKGR_PLLAR_MULA_Msk) >> CKGR_PLLAR_MULA_Pos) + 1U);
  400afc:	4a14      	ldr	r2, [pc, #80]	; (400b50 <SystemCoreClockUpdate+0xf0>)
  400afe:	6a91      	ldr	r1, [r2, #40]	; 0x28
        SystemCoreClock /= ((((PMC->CKGR_PLLAR) & CKGR_PLLAR_DIVA_Msk) >> CKGR_PLLAR_DIVA_Pos));
  400b00:	6a92      	ldr	r2, [r2, #40]	; 0x28
  400b02:	4814      	ldr	r0, [pc, #80]	; (400b54 <SystemCoreClockUpdate+0xf4>)
        SystemCoreClock *= ((((PMC->CKGR_PLLAR) & CKGR_PLLAR_MULA_Msk) >> CKGR_PLLAR_MULA_Pos) + 1U);
  400b04:	f3c1 410a 	ubfx	r1, r1, #16, #11
  400b08:	6803      	ldr	r3, [r0, #0]
  400b0a:	fb01 3303 	mla	r3, r1, r3, r3
        SystemCoreClock /= ((((PMC->CKGR_PLLAR) & CKGR_PLLAR_DIVA_Msk) >> CKGR_PLLAR_DIVA_Pos));
  400b0e:	b2d2      	uxtb	r2, r2
  400b10:	fbb3 f3f2 	udiv	r3, r3, r2
  400b14:	6003      	str	r3, [r0, #0]
  400b16:	e7ac      	b.n	400a72 <SystemCoreClockUpdate+0x12>
        SystemCoreClock = CHIP_FREQ_MAINCK_RC_4MHZ;
  400b18:	4a11      	ldr	r2, [pc, #68]	; (400b60 <SystemCoreClockUpdate+0x100>)
  400b1a:	4b0e      	ldr	r3, [pc, #56]	; (400b54 <SystemCoreClockUpdate+0xf4>)
  400b1c:	601a      	str	r2, [r3, #0]
        switch ( PMC->CKGR_MOR & CKGR_MOR_MOSCRCF_Msk )
  400b1e:	4b0c      	ldr	r3, [pc, #48]	; (400b50 <SystemCoreClockUpdate+0xf0>)
  400b20:	6a1b      	ldr	r3, [r3, #32]
  400b22:	f003 0370 	and.w	r3, r3, #112	; 0x70
  400b26:	2b10      	cmp	r3, #16
  400b28:	d005      	beq.n	400b36 <SystemCoreClockUpdate+0xd6>
  400b2a:	2b20      	cmp	r3, #32
  400b2c:	d1e0      	bne.n	400af0 <SystemCoreClockUpdate+0x90>
            SystemCoreClock *= 3U;
  400b2e:	4a0b      	ldr	r2, [pc, #44]	; (400b5c <SystemCoreClockUpdate+0xfc>)
  400b30:	4b08      	ldr	r3, [pc, #32]	; (400b54 <SystemCoreClockUpdate+0xf4>)
  400b32:	601a      	str	r2, [r3, #0]
          break;
  400b34:	e7dc      	b.n	400af0 <SystemCoreClockUpdate+0x90>
            SystemCoreClock *= 2U;
  400b36:	4a0b      	ldr	r2, [pc, #44]	; (400b64 <SystemCoreClockUpdate+0x104>)
  400b38:	4b06      	ldr	r3, [pc, #24]	; (400b54 <SystemCoreClockUpdate+0xf4>)
  400b3a:	601a      	str	r2, [r3, #0]
          break;
  400b3c:	e7d8      	b.n	400af0 <SystemCoreClockUpdate+0x90>
    SystemCoreClock /= 3U;
  400b3e:	4a05      	ldr	r2, [pc, #20]	; (400b54 <SystemCoreClockUpdate+0xf4>)
  400b40:	6813      	ldr	r3, [r2, #0]
  400b42:	4909      	ldr	r1, [pc, #36]	; (400b68 <SystemCoreClockUpdate+0x108>)
  400b44:	fba1 1303 	umull	r1, r3, r1, r3
  400b48:	085b      	lsrs	r3, r3, #1
  400b4a:	6013      	str	r3, [r2, #0]
  400b4c:	4770      	bx	lr
  400b4e:	bf00      	nop
  400b50:	400e0600 	.word	0x400e0600
  400b54:	20400004 	.word	0x20400004
  400b58:	400e1810 	.word	0x400e1810
  400b5c:	00b71b00 	.word	0x00b71b00
  400b60:	003d0900 	.word	0x003d0900
  400b64:	007a1200 	.word	0x007a1200
  400b68:	aaaaaaab 	.word	0xaaaaaaab

00400b6c <system_init_flash>:
 * Initialize flash.
 */
void system_init_flash( uint32_t ul_clk )
{
  /* Set FWS for embedded Flash access according to operating frequency */
  if ( ul_clk < CHIP_FREQ_FWS_0 )
  400b6c:	4b16      	ldr	r3, [pc, #88]	; (400bc8 <system_init_flash+0x5c>)
  400b6e:	4298      	cmp	r0, r3
  400b70:	d913      	bls.n	400b9a <system_init_flash+0x2e>
  {
    EFC->EEFC_FMR = EEFC_FMR_FWS(0)|EEFC_FMR_CLOE;
  }
  else
  {
    if (ul_clk < CHIP_FREQ_FWS_1)
  400b72:	4b16      	ldr	r3, [pc, #88]	; (400bcc <system_init_flash+0x60>)
  400b74:	4298      	cmp	r0, r3
  400b76:	d915      	bls.n	400ba4 <system_init_flash+0x38>
    {
      EFC->EEFC_FMR = EEFC_FMR_FWS(1)|EEFC_FMR_CLOE;
    }
    else
    {
      if (ul_clk < CHIP_FREQ_FWS_2)
  400b78:	4b15      	ldr	r3, [pc, #84]	; (400bd0 <system_init_flash+0x64>)
  400b7a:	4298      	cmp	r0, r3
  400b7c:	d916      	bls.n	400bac <system_init_flash+0x40>
      {
        EFC->EEFC_FMR = EEFC_FMR_FWS(2)|EEFC_FMR_CLOE;
      }
      else
      {
        if ( ul_clk < CHIP_FREQ_FWS_3 )
  400b7e:	4b15      	ldr	r3, [pc, #84]	; (400bd4 <system_init_flash+0x68>)
  400b80:	4298      	cmp	r0, r3
  400b82:	d917      	bls.n	400bb4 <system_init_flash+0x48>
        {
          EFC->EEFC_FMR = EEFC_FMR_FWS(3)|EEFC_FMR_CLOE;
        }
        else
        {
          if ( ul_clk < CHIP_FREQ_FWS_4 )
  400b84:	4b14      	ldr	r3, [pc, #80]	; (400bd8 <system_init_flash+0x6c>)
  400b86:	4298      	cmp	r0, r3
  400b88:	d918      	bls.n	400bbc <system_init_flash+0x50>
          {
            EFC->EEFC_FMR = EEFC_FMR_FWS(4)|EEFC_FMR_CLOE;
          }
          else
          {
            if ( ul_clk < CHIP_FREQ_FWS_5 )
  400b8a:	4b14      	ldr	r3, [pc, #80]	; (400bdc <system_init_flash+0x70>)
  400b8c:	4298      	cmp	r0, r3
            {
              EFC->EEFC_FMR = EEFC_FMR_FWS(5)|EEFC_FMR_CLOE;
  400b8e:	bf94      	ite	ls
  400b90:	4a13      	ldrls	r2, [pc, #76]	; (400be0 <system_init_flash+0x74>)
            }
            else
            {
              EFC->EEFC_FMR = EEFC_FMR_FWS(6)|EEFC_FMR_CLOE;
  400b92:	4a14      	ldrhi	r2, [pc, #80]	; (400be4 <system_init_flash+0x78>)
  400b94:	4b14      	ldr	r3, [pc, #80]	; (400be8 <system_init_flash+0x7c>)
  400b96:	601a      	str	r2, [r3, #0]
  400b98:	4770      	bx	lr
    EFC->EEFC_FMR = EEFC_FMR_FWS(0)|EEFC_FMR_CLOE;
  400b9a:	f04f 6280 	mov.w	r2, #67108864	; 0x4000000
  400b9e:	4b12      	ldr	r3, [pc, #72]	; (400be8 <system_init_flash+0x7c>)
  400ba0:	601a      	str	r2, [r3, #0]
  400ba2:	4770      	bx	lr
      EFC->EEFC_FMR = EEFC_FMR_FWS(1)|EEFC_FMR_CLOE;
  400ba4:	4a11      	ldr	r2, [pc, #68]	; (400bec <system_init_flash+0x80>)
  400ba6:	4b10      	ldr	r3, [pc, #64]	; (400be8 <system_init_flash+0x7c>)
  400ba8:	601a      	str	r2, [r3, #0]
  400baa:	4770      	bx	lr
        EFC->EEFC_FMR = EEFC_FMR_FWS(2)|EEFC_FMR_CLOE;
  400bac:	4a10      	ldr	r2, [pc, #64]	; (400bf0 <system_init_flash+0x84>)
  400bae:	4b0e      	ldr	r3, [pc, #56]	; (400be8 <system_init_flash+0x7c>)
  400bb0:	601a      	str	r2, [r3, #0]
  400bb2:	4770      	bx	lr
          EFC->EEFC_FMR = EEFC_FMR_FWS(3)|EEFC_FMR_CLOE;
  400bb4:	4a0f      	ldr	r2, [pc, #60]	; (400bf4 <system_init_flash+0x88>)
  400bb6:	4b0c      	ldr	r3, [pc, #48]	; (400be8 <system_init_flash+0x7c>)
  400bb8:	601a      	str	r2, [r3, #0]
  400bba:	4770      	bx	lr
            EFC->EEFC_FMR = EEFC_FMR_FWS(4)|EEFC_FMR_CLOE;
  400bbc:	f04f 2204 	mov.w	r2, #67109888	; 0x4000400
  400bc0:	4b09      	ldr	r3, [pc, #36]	; (400be8 <system_init_flash+0x7c>)
  400bc2:	601a      	str	r2, [r3, #0]
  400bc4:	4770      	bx	lr
  400bc6:	bf00      	nop
  400bc8:	015ef3bf 	.word	0x015ef3bf
  400bcc:	02bde77f 	.word	0x02bde77f
  400bd0:	041cdb3f 	.word	0x041cdb3f
  400bd4:	057bceff 	.word	0x057bceff
  400bd8:	06dac2bf 	.word	0x06dac2bf
  400bdc:	0839b67f 	.word	0x0839b67f
  400be0:	04000500 	.word	0x04000500
  400be4:	04000600 	.word	0x04000600
  400be8:	400e0c00 	.word	0x400e0c00
  400bec:	04000100 	.word	0x04000100
  400bf0:	04000200 	.word	0x04000200
  400bf4:	04000300 	.word	0x04000300

00400bf8 <SysTick_Handler>:
#include <string.h>

volatile long g_systimer = 0;

void SysTick_Handler() {
	g_systimer++;	
  400bf8:	4a02      	ldr	r2, [pc, #8]	; (400c04 <SysTick_Handler+0xc>)
  400bfa:	6813      	ldr	r3, [r2, #0]
  400bfc:	3301      	adds	r3, #1
  400bfe:	6013      	str	r3, [r2, #0]
  400c00:	4770      	bx	lr
  400c02:	bf00      	nop
  400c04:	204004c4 	.word	0x204004c4

00400c08 <usart_put_string>:
}

void usart_put_string(Usart *usart, char str[]) {
  400c08:	b538      	push	{r3, r4, r5, lr}
  400c0a:	4605      	mov	r5, r0
  400c0c:	460c      	mov	r4, r1
	usart_serial_write_packet(usart, str, strlen(str));
  400c0e:	4608      	mov	r0, r1
  400c10:	4b03      	ldr	r3, [pc, #12]	; (400c20 <usart_put_string+0x18>)
  400c12:	4798      	blx	r3
  400c14:	4602      	mov	r2, r0
  400c16:	4621      	mov	r1, r4
  400c18:	4628      	mov	r0, r5
  400c1a:	4b02      	ldr	r3, [pc, #8]	; (400c24 <usart_put_string+0x1c>)
  400c1c:	4798      	blx	r3
  400c1e:	bd38      	pop	{r3, r4, r5, pc}
  400c20:	00401101 	.word	0x00401101
  400c24:	004002c1 	.word	0x004002c1

00400c28 <usart_get_string>:
}

int usart_get_string(Usart *usart, char buffer[], int bufferlen, int timeout_ms) {
  400c28:	e92d 4ff0 	stmdb	sp!, {r4, r5, r6, r7, r8, r9, sl, fp, lr}
  400c2c:	b085      	sub	sp, #20
  400c2e:	9001      	str	r0, [sp, #4]
  400c30:	468b      	mov	fp, r1
  400c32:	461f      	mov	r7, r3
	long timestart = g_systimer;
  400c34:	4b10      	ldr	r3, [pc, #64]	; (400c78 <usart_get_string+0x50>)
  400c36:	681e      	ldr	r6, [r3, #0]
  400c38:	f101 3aff 	add.w	sl, r1, #4294967295
  400c3c:	f102 38ff 	add.w	r8, r2, #4294967295
	uint32_t rx;
	uint32_t counter = 0;
  400c40:	2400      	movs	r4, #0
	
	while(g_systimer - timestart < timeout_ms && counter < bufferlen - 1) {
  400c42:	461d      	mov	r5, r3
		if(usart_read(usart, &rx) == 0) {
  400c44:	f8df 9034 	ldr.w	r9, [pc, #52]	; 400c7c <usart_get_string+0x54>
	while(g_systimer - timestart < timeout_ms && counter < bufferlen - 1) {
  400c48:	682b      	ldr	r3, [r5, #0]
  400c4a:	1b9b      	subs	r3, r3, r6
  400c4c:	42bb      	cmp	r3, r7
  400c4e:	da0b      	bge.n	400c68 <usart_get_string+0x40>
  400c50:	4544      	cmp	r4, r8
  400c52:	d009      	beq.n	400c68 <usart_get_string+0x40>
		if(usart_read(usart, &rx) == 0) {
  400c54:	a903      	add	r1, sp, #12
  400c56:	9801      	ldr	r0, [sp, #4]
  400c58:	47c8      	blx	r9
  400c5a:	2800      	cmp	r0, #0
  400c5c:	d1f4      	bne.n	400c48 <usart_get_string+0x20>
			//timestart = g_systimer; // reset timeout
			buffer[counter++] = rx;
  400c5e:	3401      	adds	r4, #1
  400c60:	9b03      	ldr	r3, [sp, #12]
  400c62:	f80a 3f01 	strb.w	r3, [sl, #1]!
  400c66:	e7ef      	b.n	400c48 <usart_get_string+0x20>
		}
	}
	buffer[counter] = 0x00;
  400c68:	2300      	movs	r3, #0
  400c6a:	f80b 3004 	strb.w	r3, [fp, r4]
	return counter;
}
  400c6e:	4620      	mov	r0, r4
  400c70:	b005      	add	sp, #20
  400c72:	e8bd 8ff0 	ldmia.w	sp!, {r4, r5, r6, r7, r8, r9, sl, fp, pc}
  400c76:	bf00      	nop
  400c78:	204004c4 	.word	0x204004c4
  400c7c:	004002a7 	.word	0x004002a7

00400c80 <usart_send_command>:

void usart_send_command(Usart *usart, char buffer_rx[], int bufferlen, char buffer_tx[], int timeout) {
  400c80:	b570      	push	{r4, r5, r6, lr}
  400c82:	4604      	mov	r4, r0
  400c84:	460d      	mov	r5, r1
  400c86:	4616      	mov	r6, r2
	usart_put_string(usart, buffer_tx);
  400c88:	4619      	mov	r1, r3
  400c8a:	4b04      	ldr	r3, [pc, #16]	; (400c9c <usart_send_command+0x1c>)
  400c8c:	4798      	blx	r3
	usart_get_string(usart, buffer_rx, bufferlen, timeout);
  400c8e:	9b04      	ldr	r3, [sp, #16]
  400c90:	4632      	mov	r2, r6
  400c92:	4629      	mov	r1, r5
  400c94:	4620      	mov	r0, r4
  400c96:	4c02      	ldr	r4, [pc, #8]	; (400ca0 <usart_send_command+0x20>)
  400c98:	47a0      	blx	r4
  400c9a:	bd70      	pop	{r4, r5, r6, pc}
  400c9c:	00400c09 	.word	0x00400c09
  400ca0:	00400c29 	.word	0x00400c29

00400ca4 <usart_log>:
}

void usart_log(char* name, char* log) {
  400ca4:	b5f8      	push	{r3, r4, r5, r6, r7, lr}
  400ca6:	4607      	mov	r7, r0
  400ca8:	460e      	mov	r6, r1
	usart_put_string(USART1, "[");
  400caa:	4d09      	ldr	r5, [pc, #36]	; (400cd0 <usart_log+0x2c>)
  400cac:	4909      	ldr	r1, [pc, #36]	; (400cd4 <usart_log+0x30>)
  400cae:	4628      	mov	r0, r5
  400cb0:	4c09      	ldr	r4, [pc, #36]	; (400cd8 <usart_log+0x34>)
  400cb2:	47a0      	blx	r4
	usart_put_string(USART1, name);
  400cb4:	4639      	mov	r1, r7
  400cb6:	4628      	mov	r0, r5
  400cb8:	47a0      	blx	r4
	usart_put_string(USART1, "] ");
  400cba:	4908      	ldr	r1, [pc, #32]	; (400cdc <usart_log+0x38>)
  400cbc:	4628      	mov	r0, r5
  400cbe:	47a0      	blx	r4
	usart_put_string(USART1, log);
  400cc0:	4631      	mov	r1, r6
  400cc2:	4628      	mov	r0, r5
  400cc4:	47a0      	blx	r4
	usart_put_string(USART1, "\r\n");
  400cc6:	4906      	ldr	r1, [pc, #24]	; (400ce0 <usart_log+0x3c>)
  400cc8:	4628      	mov	r0, r5
  400cca:	47a0      	blx	r4
  400ccc:	bdf8      	pop	{r3, r4, r5, r6, r7, pc}
  400cce:	bf00      	nop
  400cd0:	40028000 	.word	0x40028000
  400cd4:	004013e0 	.word	0x004013e0
  400cd8:	00400c09 	.word	0x00400c09
  400cdc:	004013e4 	.word	0x004013e4
  400ce0:	004013a0 	.word	0x004013a0

00400ce4 <config_console>:
}

void config_console(void) {
  400ce4:	b570      	push	{r4, r5, r6, lr}
  400ce6:	b086      	sub	sp, #24
	usart_settings.baudrate = opt->baudrate;
  400ce8:	f44f 33e1 	mov.w	r3, #115200	; 0x1c200
  400cec:	9300      	str	r3, [sp, #0]
	usart_settings.char_length = opt->charlength;
  400cee:	23c0      	movs	r3, #192	; 0xc0
  400cf0:	9301      	str	r3, [sp, #4]
	usart_settings.parity_type = opt->paritytype;
  400cf2:	f44f 6300 	mov.w	r3, #2048	; 0x800
  400cf6:	9302      	str	r3, [sp, #8]
	usart_settings.stop_bits= opt->stopbits;
  400cf8:	2300      	movs	r3, #0
  400cfa:	9303      	str	r3, [sp, #12]
	usart_settings.channel_mode= US_MR_CHMODE_NORMAL;
  400cfc:	9304      	str	r3, [sp, #16]
  400cfe:	200e      	movs	r0, #14
  400d00:	4b09      	ldr	r3, [pc, #36]	; (400d28 <config_console+0x44>)
  400d02:	4798      	blx	r3
		usart_init_rs232(p_usart, &usart_settings,
  400d04:	4c09      	ldr	r4, [pc, #36]	; (400d2c <config_console+0x48>)
  400d06:	4a0a      	ldr	r2, [pc, #40]	; (400d30 <config_console+0x4c>)
  400d08:	4669      	mov	r1, sp
  400d0a:	4620      	mov	r0, r4
  400d0c:	4b09      	ldr	r3, [pc, #36]	; (400d34 <config_console+0x50>)
  400d0e:	4798      	blx	r3
		usart_enable_tx(p_usart);
  400d10:	4620      	mov	r0, r4
  400d12:	4e09      	ldr	r6, [pc, #36]	; (400d38 <config_console+0x54>)
  400d14:	47b0      	blx	r6
		usart_enable_rx(p_usart);
  400d16:	4620      	mov	r0, r4
  400d18:	4d08      	ldr	r5, [pc, #32]	; (400d3c <config_console+0x58>)
  400d1a:	47a8      	blx	r5
	config.baudrate = 115200;
	config.charlength = US_MR_CHRL_8_BIT;
	config.paritytype = US_MR_PAR_NO;
	config.stopbits = false;
	usart_serial_init(USART1, &config);
	usart_enable_tx(USART1);
  400d1c:	4620      	mov	r0, r4
  400d1e:	47b0      	blx	r6
	usart_enable_rx(USART1);
  400d20:	4620      	mov	r0, r4
  400d22:	47a8      	blx	r5
}
  400d24:	b006      	add	sp, #24
  400d26:	bd70      	pop	{r4, r5, r6, pc}
  400d28:	00400941 	.word	0x00400941
  400d2c:	40028000 	.word	0x40028000
  400d30:	08f0d180 	.word	0x08f0d180
  400d34:	00400231 	.word	0x00400231
  400d38:	00400285 	.word	0x00400285
  400d3c:	0040028b 	.word	0x0040028b

00400d40 <hm10_config_server>:

void hm10_config_server(void) {
  400d40:	b5f0      	push	{r4, r5, r6, r7, lr}
  400d42:	b087      	sub	sp, #28
	usart_settings.baudrate = opt->baudrate;
  400d44:	f44f 5316 	mov.w	r3, #9600	; 0x2580
  400d48:	9300      	str	r3, [sp, #0]
	usart_settings.char_length = opt->charlength;
  400d4a:	23c0      	movs	r3, #192	; 0xc0
  400d4c:	9301      	str	r3, [sp, #4]
	usart_settings.parity_type = opt->paritytype;
  400d4e:	f44f 6300 	mov.w	r3, #2048	; 0x800
  400d52:	9302      	str	r3, [sp, #8]
	usart_settings.stop_bits= opt->stopbits;
  400d54:	2500      	movs	r5, #0
  400d56:	9503      	str	r5, [sp, #12]
	usart_settings.channel_mode= US_MR_CHMODE_NORMAL;
  400d58:	9504      	str	r5, [sp, #16]
  400d5a:	200d      	movs	r0, #13
  400d5c:	4b10      	ldr	r3, [pc, #64]	; (400da0 <hm10_config_server+0x60>)
  400d5e:	4798      	blx	r3
		usart_init_rs232(p_usart, &usart_settings,
  400d60:	4c10      	ldr	r4, [pc, #64]	; (400da4 <hm10_config_server+0x64>)
  400d62:	4a11      	ldr	r2, [pc, #68]	; (400da8 <hm10_config_server+0x68>)
  400d64:	4669      	mov	r1, sp
  400d66:	4620      	mov	r0, r4
  400d68:	4b10      	ldr	r3, [pc, #64]	; (400dac <hm10_config_server+0x6c>)
  400d6a:	4798      	blx	r3
		usart_enable_tx(p_usart);
  400d6c:	4620      	mov	r0, r4
  400d6e:	4f10      	ldr	r7, [pc, #64]	; (400db0 <hm10_config_server+0x70>)
  400d70:	47b8      	blx	r7
		usart_enable_rx(p_usart);
  400d72:	4620      	mov	r0, r4
  400d74:	4e0f      	ldr	r6, [pc, #60]	; (400db4 <hm10_config_server+0x74>)
  400d76:	47b0      	blx	r6
	config.baudrate = 9600;
	config.charlength = US_MR_CHRL_8_BIT;
	config.paritytype = US_MR_PAR_NO;
	config.stopbits = false;
	usart_serial_init(USART0, &config);
	usart_enable_tx(USART0);
  400d78:	4620      	mov	r0, r4
  400d7a:	47b8      	blx	r7
	usart_enable_rx(USART0);
  400d7c:	4620      	mov	r0, r4
  400d7e:	47b0      	blx	r6
	
	 // RX - PB0  TX - PB1 
	 pio_configure(PIOB, PIO_PERIPH_C, (1 << 0), PIO_DEFAULT);
  400d80:	4e0d      	ldr	r6, [pc, #52]	; (400db8 <hm10_config_server+0x78>)
  400d82:	462b      	mov	r3, r5
  400d84:	2201      	movs	r2, #1
  400d86:	f04f 51c0 	mov.w	r1, #402653184	; 0x18000000
  400d8a:	4630      	mov	r0, r6
  400d8c:	4c0b      	ldr	r4, [pc, #44]	; (400dbc <hm10_config_server+0x7c>)
  400d8e:	47a0      	blx	r4
	 pio_configure(PIOB, PIO_PERIPH_C, (1 << 1), PIO_DEFAULT);
  400d90:	462b      	mov	r3, r5
  400d92:	2202      	movs	r2, #2
  400d94:	f04f 51c0 	mov.w	r1, #402653184	; 0x18000000
  400d98:	4630      	mov	r0, r6
  400d9a:	47a0      	blx	r4
}
  400d9c:	b007      	add	sp, #28
  400d9e:	bdf0      	pop	{r4, r5, r6, r7, pc}
  400da0:	00400941 	.word	0x00400941
  400da4:	40024000 	.word	0x40024000
  400da8:	08f0d180 	.word	0x08f0d180
  400dac:	00400231 	.word	0x00400231
  400db0:	00400285 	.word	0x00400285
  400db4:	0040028b 	.word	0x0040028b
  400db8:	400e1000 	.word	0x400e1000
  400dbc:	004006d5 	.word	0x004006d5

00400dc0 <hm10_config_client>:

void hm10_config_client(void) {
  400dc0:	b530      	push	{r4, r5, lr}
  400dc2:	b085      	sub	sp, #20
	uart_settings.ul_mck = sysclk_get_peripheral_hz();
  400dc4:	4b13      	ldr	r3, [pc, #76]	; (400e14 <hm10_config_client+0x54>)
  400dc6:	9301      	str	r3, [sp, #4]
	uart_settings.ul_baudrate = opt->baudrate;
  400dc8:	f44f 5316 	mov.w	r3, #9600	; 0x2580
  400dcc:	9302      	str	r3, [sp, #8]
	uart_settings.ul_mode = opt->paritytype;
  400dce:	f44f 6300 	mov.w	r3, #2048	; 0x800
  400dd2:	9303      	str	r3, [sp, #12]
  400dd4:	202d      	movs	r0, #45	; 0x2d
  400dd6:	4b10      	ldr	r3, [pc, #64]	; (400e18 <hm10_config_client+0x58>)
  400dd8:	4798      	blx	r3
		uart_init((Uart*)p_usart, &uart_settings);
  400dda:	4c10      	ldr	r4, [pc, #64]	; (400e1c <hm10_config_client+0x5c>)
  400ddc:	a901      	add	r1, sp, #4
  400dde:	4620      	mov	r0, r4
  400de0:	4b0f      	ldr	r3, [pc, #60]	; (400e20 <hm10_config_client+0x60>)
  400de2:	4798      	blx	r3
	config.baudrate = 9600;
	config.charlength = US_MR_CHRL_8_BIT;
	config.paritytype = US_MR_PAR_NO;
	config.stopbits = false;
	usart_serial_init(UART3, &config);
	usart_enable_tx(UART3);
  400de4:	4620      	mov	r0, r4
  400de6:	4b0f      	ldr	r3, [pc, #60]	; (400e24 <hm10_config_client+0x64>)
  400de8:	4798      	blx	r3
	usart_enable_rx(UART3);
  400dea:	4620      	mov	r0, r4
  400dec:	4b0e      	ldr	r3, [pc, #56]	; (400e28 <hm10_config_client+0x68>)
  400dee:	4798      	blx	r3
	
	// RX - PD28 TX - PD30
	pio_configure(PIOD, PIO_PERIPH_A, (1 << 28), PIO_DEFAULT);
  400df0:	4d0e      	ldr	r5, [pc, #56]	; (400e2c <hm10_config_client+0x6c>)
  400df2:	2300      	movs	r3, #0
  400df4:	f04f 5280 	mov.w	r2, #268435456	; 0x10000000
  400df8:	f04f 6100 	mov.w	r1, #134217728	; 0x8000000
  400dfc:	4628      	mov	r0, r5
  400dfe:	4c0c      	ldr	r4, [pc, #48]	; (400e30 <hm10_config_client+0x70>)
  400e00:	47a0      	blx	r4
	pio_configure(PIOD, PIO_PERIPH_A, (1 << 30), PIO_DEFAULT);
  400e02:	2300      	movs	r3, #0
  400e04:	f04f 4280 	mov.w	r2, #1073741824	; 0x40000000
  400e08:	f04f 6100 	mov.w	r1, #134217728	; 0x8000000
  400e0c:	4628      	mov	r0, r5
  400e0e:	47a0      	blx	r4
}
  400e10:	b005      	add	sp, #20
  400e12:	bd30      	pop	{r4, r5, pc}
  400e14:	08f0d180 	.word	0x08f0d180
  400e18:	00400941 	.word	0x00400941
  400e1c:	400e1c00 	.word	0x400e1c00
  400e20:	00400399 	.word	0x00400399
  400e24:	00400285 	.word	0x00400285
  400e28:	0040028b 	.word	0x0040028b
  400e2c:	400e1400 	.word	0x400e1400
  400e30:	004006d5 	.word	0x004006d5

00400e34 <hm10_server_init>:

int hm10_server_init(void) {
  400e34:	b5f0      	push	{r4, r5, r6, r7, lr}
  400e36:	b0a3      	sub	sp, #140	; 0x8c
	char buffer_rx[128];
	usart_send_command(USART0, buffer_rx, 1000, "AT", 200);
  400e38:	4e1a      	ldr	r6, [pc, #104]	; (400ea4 <hm10_server_init+0x70>)
  400e3a:	4d1b      	ldr	r5, [pc, #108]	; (400ea8 <hm10_server_init+0x74>)
  400e3c:	27c8      	movs	r7, #200	; 0xc8
  400e3e:	9700      	str	r7, [sp, #0]
  400e40:	4633      	mov	r3, r6
  400e42:	f44f 727a 	mov.w	r2, #1000	; 0x3e8
  400e46:	a902      	add	r1, sp, #8
  400e48:	4628      	mov	r0, r5
  400e4a:	4c18      	ldr	r4, [pc, #96]	; (400eac <hm10_server_init+0x78>)
  400e4c:	47a0      	blx	r4
	usart_send_command(USART0, buffer_rx, 1000, "AT", 200);
  400e4e:	9700      	str	r7, [sp, #0]
  400e50:	4633      	mov	r3, r6
  400e52:	f44f 727a 	mov.w	r2, #1000	; 0x3e8
  400e56:	a902      	add	r1, sp, #8
  400e58:	4628      	mov	r0, r5
  400e5a:	47a0      	blx	r4
	usart_send_command(USART0, buffer_rx, 1000, "AT", 200);
  400e5c:	9700      	str	r7, [sp, #0]
  400e5e:	4633      	mov	r3, r6
  400e60:	f44f 727a 	mov.w	r2, #1000	; 0x3e8
  400e64:	a902      	add	r1, sp, #8
  400e66:	4628      	mov	r0, r5
  400e68:	47a0      	blx	r4
	usart_send_command(USART0, buffer_rx, 1000, "AT+RESET", 400);	
  400e6a:	f44f 76c8 	mov.w	r6, #400	; 0x190
  400e6e:	9600      	str	r6, [sp, #0]
  400e70:	4b0f      	ldr	r3, [pc, #60]	; (400eb0 <hm10_server_init+0x7c>)
  400e72:	f44f 727a 	mov.w	r2, #1000	; 0x3e8
  400e76:	a902      	add	r1, sp, #8
  400e78:	4628      	mov	r0, r5
  400e7a:	47a0      	blx	r4
	usart_send_command(USART0, buffer_rx, 1000, "AT+NAMEServer", 400);
  400e7c:	9600      	str	r6, [sp, #0]
  400e7e:	4b0d      	ldr	r3, [pc, #52]	; (400eb4 <hm10_server_init+0x80>)
  400e80:	f44f 727a 	mov.w	r2, #1000	; 0x3e8
  400e84:	a902      	add	r1, sp, #8
  400e86:	4628      	mov	r0, r5
  400e88:	47a0      	blx	r4
	usart_send_command(USART0, buffer_rx, 1000, "AT+ROLE0", 400);
  400e8a:	9600      	str	r6, [sp, #0]
  400e8c:	4b0a      	ldr	r3, [pc, #40]	; (400eb8 <hm10_server_init+0x84>)
  400e8e:	f44f 727a 	mov.w	r2, #1000	; 0x3e8
  400e92:	a902      	add	r1, sp, #8
  400e94:	4628      	mov	r0, r5
  400e96:	47a0      	blx	r4
	usart_log("hm10_server_init", buffer_rx);
  400e98:	a902      	add	r1, sp, #8
  400e9a:	4808      	ldr	r0, [pc, #32]	; (400ebc <hm10_server_init+0x88>)
  400e9c:	4b08      	ldr	r3, [pc, #32]	; (400ec0 <hm10_server_init+0x8c>)
  400e9e:	4798      	blx	r3
}
  400ea0:	b023      	add	sp, #140	; 0x8c
  400ea2:	bdf0      	pop	{r4, r5, r6, r7, pc}
  400ea4:	00401350 	.word	0x00401350
  400ea8:	40024000 	.word	0x40024000
  400eac:	00400c81 	.word	0x00400c81
  400eb0:	00401354 	.word	0x00401354
  400eb4:	00401360 	.word	0x00401360
  400eb8:	00401370 	.word	0x00401370
  400ebc:	0040137c 	.word	0x0040137c
  400ec0:	00400ca5 	.word	0x00400ca5

00400ec4 <hm10_client_init>:

int hm10_client_init(void) {
  400ec4:	e92d 43f0 	stmdb	sp!, {r4, r5, r6, r7, r8, r9, lr}
  400ec8:	b0a3      	sub	sp, #140	; 0x8c
	char buffer_rx[128];
	usart_send_command(UART3, buffer_rx, 1000, "AT", 200);
  400eca:	4e36      	ldr	r6, [pc, #216]	; (400fa4 <hm10_client_init+0xe0>)
  400ecc:	4d36      	ldr	r5, [pc, #216]	; (400fa8 <hm10_client_init+0xe4>)
  400ece:	27c8      	movs	r7, #200	; 0xc8
  400ed0:	9700      	str	r7, [sp, #0]
  400ed2:	4633      	mov	r3, r6
  400ed4:	f44f 727a 	mov.w	r2, #1000	; 0x3e8
  400ed8:	a902      	add	r1, sp, #8
  400eda:	4628      	mov	r0, r5
  400edc:	4c33      	ldr	r4, [pc, #204]	; (400fac <hm10_client_init+0xe8>)
  400ede:	47a0      	blx	r4
	usart_send_command(UART3, buffer_rx, 1000, "AT", 200);
  400ee0:	9700      	str	r7, [sp, #0]
  400ee2:	4633      	mov	r3, r6
  400ee4:	f44f 727a 	mov.w	r2, #1000	; 0x3e8
  400ee8:	a902      	add	r1, sp, #8
  400eea:	4628      	mov	r0, r5
  400eec:	47a0      	blx	r4
	usart_send_command(UART3, buffer_rx, 1000, "AT", 200);
  400eee:	9700      	str	r7, [sp, #0]
  400ef0:	4633      	mov	r3, r6
  400ef2:	f44f 727a 	mov.w	r2, #1000	; 0x3e8
  400ef6:	a902      	add	r1, sp, #8
  400ef8:	4628      	mov	r0, r5
  400efa:	47a0      	blx	r4
	usart_send_command(UART3, buffer_rx, 1000, "AT+RESET", 400);
  400efc:	f8df 90cc 	ldr.w	r9, [pc, #204]	; 400fcc <hm10_client_init+0x108>
  400f00:	f44f 78c8 	mov.w	r8, #400	; 0x190
  400f04:	f8cd 8000 	str.w	r8, [sp]
  400f08:	464b      	mov	r3, r9
  400f0a:	f44f 727a 	mov.w	r2, #1000	; 0x3e8
  400f0e:	a902      	add	r1, sp, #8
  400f10:	4628      	mov	r0, r5
  400f12:	47a0      	blx	r4
	usart_send_command(UART3, buffer_rx, 1000, "AT+NAMEClient", 400);
  400f14:	f8cd 8000 	str.w	r8, [sp]
  400f18:	4b25      	ldr	r3, [pc, #148]	; (400fb0 <hm10_client_init+0xec>)
  400f1a:	f44f 727a 	mov.w	r2, #1000	; 0x3e8
  400f1e:	a902      	add	r1, sp, #8
  400f20:	4628      	mov	r0, r5
  400f22:	47a0      	blx	r4
	usart_log("hm10_client_init", buffer_rx);
  400f24:	4f23      	ldr	r7, [pc, #140]	; (400fb4 <hm10_client_init+0xf0>)
  400f26:	a902      	add	r1, sp, #8
  400f28:	4638      	mov	r0, r7
  400f2a:	4e23      	ldr	r6, [pc, #140]	; (400fb8 <hm10_client_init+0xf4>)
  400f2c:	47b0      	blx	r6
	usart_send_command(UART3, buffer_rx, 1000, "AT+IMME1", 400);
  400f2e:	f8cd 8000 	str.w	r8, [sp]
  400f32:	4b22      	ldr	r3, [pc, #136]	; (400fbc <hm10_client_init+0xf8>)
  400f34:	f44f 727a 	mov.w	r2, #1000	; 0x3e8
  400f38:	a902      	add	r1, sp, #8
  400f3a:	4628      	mov	r0, r5
  400f3c:	47a0      	blx	r4
	usart_log("hm10_client_init", buffer_rx);
  400f3e:	a902      	add	r1, sp, #8
  400f40:	4638      	mov	r0, r7
  400f42:	47b0      	blx	r6
	usart_send_command(UART3, buffer_rx, 1000, "AT+ROLE1", 400);
  400f44:	f8cd 8000 	str.w	r8, [sp]
  400f48:	4b1d      	ldr	r3, [pc, #116]	; (400fc0 <hm10_client_init+0xfc>)
  400f4a:	f44f 727a 	mov.w	r2, #1000	; 0x3e8
  400f4e:	a902      	add	r1, sp, #8
  400f50:	4628      	mov	r0, r5
  400f52:	47a0      	blx	r4
	usart_log("hm10_client_init", buffer_rx);
  400f54:	a902      	add	r1, sp, #8
  400f56:	4638      	mov	r0, r7
  400f58:	47b0      	blx	r6
	usart_send_command(UART3, buffer_rx, 1000, "AT+RESET", 800); // http://www.martyncurrey.com/hm-10-bluetooth-4ble-modules/
  400f5a:	f44f 7348 	mov.w	r3, #800	; 0x320
  400f5e:	9300      	str	r3, [sp, #0]
  400f60:	464b      	mov	r3, r9
  400f62:	f44f 727a 	mov.w	r2, #1000	; 0x3e8
  400f66:	a902      	add	r1, sp, #8
  400f68:	4628      	mov	r0, r5
  400f6a:	47a0      	blx	r4
	usart_log("hm10_client_init", buffer_rx);
  400f6c:	a902      	add	r1, sp, #8
  400f6e:	4638      	mov	r0, r7
  400f70:	47b0      	blx	r6
	usart_send_command(UART3, buffer_rx, 1000, "AT+DISC?", 10000); 
  400f72:	f242 7310 	movw	r3, #10000	; 0x2710
  400f76:	9300      	str	r3, [sp, #0]
  400f78:	4b12      	ldr	r3, [pc, #72]	; (400fc4 <hm10_client_init+0x100>)
  400f7a:	f44f 727a 	mov.w	r2, #1000	; 0x3e8
  400f7e:	a902      	add	r1, sp, #8
  400f80:	4628      	mov	r0, r5
  400f82:	47a0      	blx	r4
	usart_log("hm10_client_init", buffer_rx);
  400f84:	a902      	add	r1, sp, #8
  400f86:	4638      	mov	r0, r7
  400f88:	47b0      	blx	r6
	usart_send_command(UART3, buffer_rx, 1000, "AT+CONN0", 1000);
  400f8a:	f44f 727a 	mov.w	r2, #1000	; 0x3e8
  400f8e:	9200      	str	r2, [sp, #0]
  400f90:	4b0d      	ldr	r3, [pc, #52]	; (400fc8 <hm10_client_init+0x104>)
  400f92:	a902      	add	r1, sp, #8
  400f94:	4628      	mov	r0, r5
  400f96:	47a0      	blx	r4
	usart_log("hm10_client_init", buffer_rx);
  400f98:	a902      	add	r1, sp, #8
  400f9a:	4638      	mov	r0, r7
  400f9c:	47b0      	blx	r6
	
}
  400f9e:	b023      	add	sp, #140	; 0x8c
  400fa0:	e8bd 83f0 	ldmia.w	sp!, {r4, r5, r6, r7, r8, r9, pc}
  400fa4:	00401350 	.word	0x00401350
  400fa8:	400e1c00 	.word	0x400e1c00
  400fac:	00400c81 	.word	0x00400c81
  400fb0:	004012fc 	.word	0x004012fc
  400fb4:	0040130c 	.word	0x0040130c
  400fb8:	00400ca5 	.word	0x00400ca5
  400fbc:	00401320 	.word	0x00401320
  400fc0:	0040132c 	.word	0x0040132c
  400fc4:	00401338 	.word	0x00401338
  400fc8:	00401344 	.word	0x00401344
  400fcc:	00401354 	.word	0x00401354

00400fd0 <main>:

int main (void)
{
  400fd0:	b580      	push	{r7, lr}
  400fd2:	f5ad 6d80 	sub.w	sp, sp, #1024	; 0x400
	board_init();
  400fd6:	4b1b      	ldr	r3, [pc, #108]	; (401044 <main+0x74>)
  400fd8:	4798      	blx	r3
	sysclk_init();
  400fda:	4b1b      	ldr	r3, [pc, #108]	; (401048 <main+0x78>)
  400fdc:	4798      	blx	r3
 */
__STATIC_INLINE uint32_t SysTick_Config(uint32_t ticks)
{
  if ((ticks - 1) > SysTick_LOAD_RELOAD_Msk)  return (1);      /* Reload value impossible */

  SysTick->LOAD  = ticks - 1;                                  /* set reload register */
  400fde:	4b1b      	ldr	r3, [pc, #108]	; (40104c <main+0x7c>)
  400fe0:	4a1b      	ldr	r2, [pc, #108]	; (401050 <main+0x80>)
  400fe2:	605a      	str	r2, [r3, #4]
    SCB->SHPR[((uint32_t)(IRQn) & 0xF)-4] = ((priority << (8 - __NVIC_PRIO_BITS)) & 0xff); } /* set Priority for Cortex-M  System Interrupts */
  400fe4:	21e0      	movs	r1, #224	; 0xe0
  400fe6:	4a1b      	ldr	r2, [pc, #108]	; (401054 <main+0x84>)
  400fe8:	f882 1023 	strb.w	r1, [r2, #35]	; 0x23
  NVIC_SetPriority (SysTick_IRQn, (1<<__NVIC_PRIO_BITS) - 1);  /* set Priority for Systick Interrupt */
  SysTick->VAL   = 0;                                          /* Load the SysTick Counter Value */
  400fec:	2200      	movs	r2, #0
  400fee:	609a      	str	r2, [r3, #8]
  SysTick->CTRL  = SysTick_CTRL_CLKSOURCE_Msk |
  400ff0:	2207      	movs	r2, #7
  400ff2:	601a      	str	r2, [r3, #0]
	delay_init();
	SysTick_Config(sysclk_get_cpu_hz() / 1000); // 1 ms
	config_console();
  400ff4:	4b18      	ldr	r3, [pc, #96]	; (401058 <main+0x88>)
  400ff6:	4798      	blx	r3
	
	usart_put_string(USART1, "Inicializando...\r\n");
  400ff8:	4d18      	ldr	r5, [pc, #96]	; (40105c <main+0x8c>)
  400ffa:	4919      	ldr	r1, [pc, #100]	; (401060 <main+0x90>)
  400ffc:	4628      	mov	r0, r5
  400ffe:	4c19      	ldr	r4, [pc, #100]	; (401064 <main+0x94>)
  401000:	47a0      	blx	r4
	usart_put_string(USART1, "Config HC05 Server...\r\n");
  401002:	4919      	ldr	r1, [pc, #100]	; (401068 <main+0x98>)
  401004:	4628      	mov	r0, r5
  401006:	47a0      	blx	r4
	hm10_config_server();
  401008:	4b18      	ldr	r3, [pc, #96]	; (40106c <main+0x9c>)
  40100a:	4798      	blx	r3
	hm10_server_init();
  40100c:	4b18      	ldr	r3, [pc, #96]	; (401070 <main+0xa0>)
  40100e:	4798      	blx	r3
	usart_put_string(USART1, "Config HC05 Client...\r\n");
  401010:	4918      	ldr	r1, [pc, #96]	; (401074 <main+0xa4>)
  401012:	4628      	mov	r0, r5
  401014:	47a0      	blx	r4
	hm10_config_client(); 
  401016:	4b18      	ldr	r3, [pc, #96]	; (401078 <main+0xa8>)
  401018:	4798      	blx	r3
	hm10_client_init();
  40101a:	4b18      	ldr	r3, [pc, #96]	; (40107c <main+0xac>)
  40101c:	4798      	blx	r3
	char buffer[1024];
	
	while(1) {
		usart_put_string(UART3, "OI\n");
  40101e:	4f18      	ldr	r7, [pc, #96]	; (401080 <main+0xb0>)
  401020:	4e18      	ldr	r6, [pc, #96]	; (401084 <main+0xb4>)
  401022:	4625      	mov	r5, r4
  401024:	4639      	mov	r1, r7
  401026:	4630      	mov	r0, r6
  401028:	47a8      	blx	r5
		usart_get_string(USART0, buffer, 1024, 1000);
  40102a:	f44f 737a 	mov.w	r3, #1000	; 0x3e8
  40102e:	f44f 6280 	mov.w	r2, #1024	; 0x400
  401032:	4669      	mov	r1, sp
  401034:	4814      	ldr	r0, [pc, #80]	; (401088 <main+0xb8>)
  401036:	4c15      	ldr	r4, [pc, #84]	; (40108c <main+0xbc>)
  401038:	47a0      	blx	r4
		usart_log("main", buffer);
  40103a:	4669      	mov	r1, sp
  40103c:	4814      	ldr	r0, [pc, #80]	; (401090 <main+0xc0>)
  40103e:	4b15      	ldr	r3, [pc, #84]	; (401094 <main+0xc4>)
  401040:	4798      	blx	r3
  401042:	e7ef      	b.n	401024 <main+0x54>
  401044:	0040044d 	.word	0x0040044d
  401048:	004003dd 	.word	0x004003dd
  40104c:	e000e010 	.word	0xe000e010
  401050:	000493df 	.word	0x000493df
  401054:	e000ed00 	.word	0xe000ed00
  401058:	00400ce5 	.word	0x00400ce5
  40105c:	40028000 	.word	0x40028000
  401060:	00401390 	.word	0x00401390
  401064:	00400c09 	.word	0x00400c09
  401068:	004013a4 	.word	0x004013a4
  40106c:	00400d41 	.word	0x00400d41
  401070:	00400e35 	.word	0x00400e35
  401074:	004013bc 	.word	0x004013bc
  401078:	00400dc1 	.word	0x00400dc1
  40107c:	00400ec5 	.word	0x00400ec5
  401080:	004013d4 	.word	0x004013d4
  401084:	400e1c00 	.word	0x400e1c00
  401088:	40024000 	.word	0x40024000
  40108c:	00400c29 	.word	0x00400c29
  401090:	004013d8 	.word	0x004013d8
  401094:	00400ca5 	.word	0x00400ca5

00401098 <__libc_init_array>:
  401098:	b570      	push	{r4, r5, r6, lr}
  40109a:	4e0f      	ldr	r6, [pc, #60]	; (4010d8 <__libc_init_array+0x40>)
  40109c:	4d0f      	ldr	r5, [pc, #60]	; (4010dc <__libc_init_array+0x44>)
  40109e:	1b76      	subs	r6, r6, r5
  4010a0:	10b6      	asrs	r6, r6, #2
  4010a2:	bf18      	it	ne
  4010a4:	2400      	movne	r4, #0
  4010a6:	d005      	beq.n	4010b4 <__libc_init_array+0x1c>
  4010a8:	3401      	adds	r4, #1
  4010aa:	f855 3b04 	ldr.w	r3, [r5], #4
  4010ae:	4798      	blx	r3
  4010b0:	42a6      	cmp	r6, r4
  4010b2:	d1f9      	bne.n	4010a8 <__libc_init_array+0x10>
  4010b4:	4e0a      	ldr	r6, [pc, #40]	; (4010e0 <__libc_init_array+0x48>)
  4010b6:	4d0b      	ldr	r5, [pc, #44]	; (4010e4 <__libc_init_array+0x4c>)
  4010b8:	1b76      	subs	r6, r6, r5
  4010ba:	f000 f997 	bl	4013ec <_init>
  4010be:	10b6      	asrs	r6, r6, #2
  4010c0:	bf18      	it	ne
  4010c2:	2400      	movne	r4, #0
  4010c4:	d006      	beq.n	4010d4 <__libc_init_array+0x3c>
  4010c6:	3401      	adds	r4, #1
  4010c8:	f855 3b04 	ldr.w	r3, [r5], #4
  4010cc:	4798      	blx	r3
  4010ce:	42a6      	cmp	r6, r4
  4010d0:	d1f9      	bne.n	4010c6 <__libc_init_array+0x2e>
  4010d2:	bd70      	pop	{r4, r5, r6, pc}
  4010d4:	bd70      	pop	{r4, r5, r6, pc}
  4010d6:	bf00      	nop
  4010d8:	004013f8 	.word	0x004013f8
  4010dc:	004013f8 	.word	0x004013f8
  4010e0:	00401400 	.word	0x00401400
  4010e4:	004013f8 	.word	0x004013f8
	...

00401100 <strlen>:
  401100:	f890 f000 	pld	[r0]
  401104:	e96d 4502 	strd	r4, r5, [sp, #-8]!
  401108:	f020 0107 	bic.w	r1, r0, #7
  40110c:	f06f 0c00 	mvn.w	ip, #0
  401110:	f010 0407 	ands.w	r4, r0, #7
  401114:	f891 f020 	pld	[r1, #32]
  401118:	f040 8049 	bne.w	4011ae <strlen+0xae>
  40111c:	f04f 0400 	mov.w	r4, #0
  401120:	f06f 0007 	mvn.w	r0, #7
  401124:	e9d1 2300 	ldrd	r2, r3, [r1]
  401128:	f891 f040 	pld	[r1, #64]	; 0x40
  40112c:	f100 0008 	add.w	r0, r0, #8
  401130:	fa82 f24c 	uadd8	r2, r2, ip
  401134:	faa4 f28c 	sel	r2, r4, ip
  401138:	fa83 f34c 	uadd8	r3, r3, ip
  40113c:	faa2 f38c 	sel	r3, r2, ip
  401140:	bb4b      	cbnz	r3, 401196 <strlen+0x96>
  401142:	e9d1 2302 	ldrd	r2, r3, [r1, #8]
  401146:	fa82 f24c 	uadd8	r2, r2, ip
  40114a:	f100 0008 	add.w	r0, r0, #8
  40114e:	faa4 f28c 	sel	r2, r4, ip
  401152:	fa83 f34c 	uadd8	r3, r3, ip
  401156:	faa2 f38c 	sel	r3, r2, ip
  40115a:	b9e3      	cbnz	r3, 401196 <strlen+0x96>
  40115c:	e9d1 2304 	ldrd	r2, r3, [r1, #16]
  401160:	fa82 f24c 	uadd8	r2, r2, ip
  401164:	f100 0008 	add.w	r0, r0, #8
  401168:	faa4 f28c 	sel	r2, r4, ip
  40116c:	fa83 f34c 	uadd8	r3, r3, ip
  401170:	faa2 f38c 	sel	r3, r2, ip
  401174:	b97b      	cbnz	r3, 401196 <strlen+0x96>
  401176:	e9d1 2306 	ldrd	r2, r3, [r1, #24]
  40117a:	f101 0120 	add.w	r1, r1, #32
  40117e:	fa82 f24c 	uadd8	r2, r2, ip
  401182:	f100 0008 	add.w	r0, r0, #8
  401186:	faa4 f28c 	sel	r2, r4, ip
  40118a:	fa83 f34c 	uadd8	r3, r3, ip
  40118e:	faa2 f38c 	sel	r3, r2, ip
  401192:	2b00      	cmp	r3, #0
  401194:	d0c6      	beq.n	401124 <strlen+0x24>
  401196:	2a00      	cmp	r2, #0
  401198:	bf04      	itt	eq
  40119a:	3004      	addeq	r0, #4
  40119c:	461a      	moveq	r2, r3
  40119e:	ba12      	rev	r2, r2
  4011a0:	fab2 f282 	clz	r2, r2
  4011a4:	e8fd 4502 	ldrd	r4, r5, [sp], #8
  4011a8:	eb00 00d2 	add.w	r0, r0, r2, lsr #3
  4011ac:	4770      	bx	lr
  4011ae:	e9d1 2300 	ldrd	r2, r3, [r1]
  4011b2:	f004 0503 	and.w	r5, r4, #3
  4011b6:	f1c4 0000 	rsb	r0, r4, #0
  4011ba:	ea4f 05c5 	mov.w	r5, r5, lsl #3
  4011be:	f014 0f04 	tst.w	r4, #4
  4011c2:	f891 f040 	pld	[r1, #64]	; 0x40
  4011c6:	fa0c f505 	lsl.w	r5, ip, r5
  4011ca:	ea62 0205 	orn	r2, r2, r5
  4011ce:	bf1c      	itt	ne
  4011d0:	ea63 0305 	ornne	r3, r3, r5
  4011d4:	4662      	movne	r2, ip
  4011d6:	f04f 0400 	mov.w	r4, #0
  4011da:	e7a9      	b.n	401130 <strlen+0x30>

004011dc <register_fini>:
  4011dc:	4b02      	ldr	r3, [pc, #8]	; (4011e8 <register_fini+0xc>)
  4011de:	b113      	cbz	r3, 4011e6 <register_fini+0xa>
  4011e0:	4802      	ldr	r0, [pc, #8]	; (4011ec <register_fini+0x10>)
  4011e2:	f000 b805 	b.w	4011f0 <atexit>
  4011e6:	4770      	bx	lr
  4011e8:	00000000 	.word	0x00000000
  4011ec:	004011fd 	.word	0x004011fd

004011f0 <atexit>:
  4011f0:	2300      	movs	r3, #0
  4011f2:	4601      	mov	r1, r0
  4011f4:	461a      	mov	r2, r3
  4011f6:	4618      	mov	r0, r3
  4011f8:	f000 b81e 	b.w	401238 <__register_exitproc>

004011fc <__libc_fini_array>:
  4011fc:	b538      	push	{r3, r4, r5, lr}
  4011fe:	4c0a      	ldr	r4, [pc, #40]	; (401228 <__libc_fini_array+0x2c>)
  401200:	4d0a      	ldr	r5, [pc, #40]	; (40122c <__libc_fini_array+0x30>)
  401202:	1b64      	subs	r4, r4, r5
  401204:	10a4      	asrs	r4, r4, #2
  401206:	d00a      	beq.n	40121e <__libc_fini_array+0x22>
  401208:	f104 4380 	add.w	r3, r4, #1073741824	; 0x40000000
  40120c:	3b01      	subs	r3, #1
  40120e:	eb05 0583 	add.w	r5, r5, r3, lsl #2
  401212:	3c01      	subs	r4, #1
  401214:	f855 3904 	ldr.w	r3, [r5], #-4
  401218:	4798      	blx	r3
  40121a:	2c00      	cmp	r4, #0
  40121c:	d1f9      	bne.n	401212 <__libc_fini_array+0x16>
  40121e:	e8bd 4038 	ldmia.w	sp!, {r3, r4, r5, lr}
  401222:	f000 b8ed 	b.w	401400 <_fini>
  401226:	bf00      	nop
  401228:	00401410 	.word	0x00401410
  40122c:	0040140c 	.word	0x0040140c

00401230 <__retarget_lock_acquire_recursive>:
  401230:	4770      	bx	lr
  401232:	bf00      	nop

00401234 <__retarget_lock_release_recursive>:
  401234:	4770      	bx	lr
  401236:	bf00      	nop

00401238 <__register_exitproc>:
  401238:	e92d 43f8 	stmdb	sp!, {r3, r4, r5, r6, r7, r8, r9, lr}
  40123c:	4d2c      	ldr	r5, [pc, #176]	; (4012f0 <__register_exitproc+0xb8>)
  40123e:	4606      	mov	r6, r0
  401240:	6828      	ldr	r0, [r5, #0]
  401242:	4698      	mov	r8, r3
  401244:	460f      	mov	r7, r1
  401246:	4691      	mov	r9, r2
  401248:	f7ff fff2 	bl	401230 <__retarget_lock_acquire_recursive>
  40124c:	4b29      	ldr	r3, [pc, #164]	; (4012f4 <__register_exitproc+0xbc>)
  40124e:	681c      	ldr	r4, [r3, #0]
  401250:	f8d4 3148 	ldr.w	r3, [r4, #328]	; 0x148
  401254:	2b00      	cmp	r3, #0
  401256:	d03e      	beq.n	4012d6 <__register_exitproc+0x9e>
  401258:	685a      	ldr	r2, [r3, #4]
  40125a:	2a1f      	cmp	r2, #31
  40125c:	dc1c      	bgt.n	401298 <__register_exitproc+0x60>
  40125e:	f102 0e01 	add.w	lr, r2, #1
  401262:	b176      	cbz	r6, 401282 <__register_exitproc+0x4a>
  401264:	eb03 0182 	add.w	r1, r3, r2, lsl #2
  401268:	2401      	movs	r4, #1
  40126a:	f8c1 9088 	str.w	r9, [r1, #136]	; 0x88
  40126e:	f8d3 0188 	ldr.w	r0, [r3, #392]	; 0x188
  401272:	4094      	lsls	r4, r2
  401274:	4320      	orrs	r0, r4
  401276:	2e02      	cmp	r6, #2
  401278:	f8c3 0188 	str.w	r0, [r3, #392]	; 0x188
  40127c:	f8c1 8108 	str.w	r8, [r1, #264]	; 0x108
  401280:	d023      	beq.n	4012ca <__register_exitproc+0x92>
  401282:	3202      	adds	r2, #2
  401284:	f8c3 e004 	str.w	lr, [r3, #4]
  401288:	6828      	ldr	r0, [r5, #0]
  40128a:	f843 7022 	str.w	r7, [r3, r2, lsl #2]
  40128e:	f7ff ffd1 	bl	401234 <__retarget_lock_release_recursive>
  401292:	2000      	movs	r0, #0
  401294:	e8bd 83f8 	ldmia.w	sp!, {r3, r4, r5, r6, r7, r8, r9, pc}
  401298:	4b17      	ldr	r3, [pc, #92]	; (4012f8 <__register_exitproc+0xc0>)
  40129a:	b30b      	cbz	r3, 4012e0 <__register_exitproc+0xa8>
  40129c:	f44f 70c8 	mov.w	r0, #400	; 0x190
  4012a0:	f3af 8000 	nop.w
  4012a4:	4603      	mov	r3, r0
  4012a6:	b1d8      	cbz	r0, 4012e0 <__register_exitproc+0xa8>
  4012a8:	f8d4 2148 	ldr.w	r2, [r4, #328]	; 0x148
  4012ac:	6002      	str	r2, [r0, #0]
  4012ae:	2100      	movs	r1, #0
  4012b0:	6041      	str	r1, [r0, #4]
  4012b2:	460a      	mov	r2, r1
  4012b4:	f8c4 0148 	str.w	r0, [r4, #328]	; 0x148
  4012b8:	f04f 0e01 	mov.w	lr, #1
  4012bc:	f8c0 1188 	str.w	r1, [r0, #392]	; 0x188
  4012c0:	f8c0 118c 	str.w	r1, [r0, #396]	; 0x18c
  4012c4:	2e00      	cmp	r6, #0
  4012c6:	d0dc      	beq.n	401282 <__register_exitproc+0x4a>
  4012c8:	e7cc      	b.n	401264 <__register_exitproc+0x2c>
  4012ca:	f8d3 118c 	ldr.w	r1, [r3, #396]	; 0x18c
  4012ce:	430c      	orrs	r4, r1
  4012d0:	f8c3 418c 	str.w	r4, [r3, #396]	; 0x18c
  4012d4:	e7d5      	b.n	401282 <__register_exitproc+0x4a>
  4012d6:	f504 73a6 	add.w	r3, r4, #332	; 0x14c
  4012da:	f8c4 3148 	str.w	r3, [r4, #328]	; 0x148
  4012de:	e7bb      	b.n	401258 <__register_exitproc+0x20>
  4012e0:	6828      	ldr	r0, [r5, #0]
  4012e2:	f7ff ffa7 	bl	401234 <__retarget_lock_release_recursive>
  4012e6:	f04f 30ff 	mov.w	r0, #4294967295
  4012ea:	e8bd 83f8 	ldmia.w	sp!, {r3, r4, r5, r6, r7, r8, r9, pc}
  4012ee:	bf00      	nop
  4012f0:	20400430 	.word	0x20400430
  4012f4:	004013e8 	.word	0x004013e8
  4012f8:	00000000 	.word	0x00000000
  4012fc:	4e2b5441 	.word	0x4e2b5441
  401300:	43454d41 	.word	0x43454d41
  401304:	6e65696c 	.word	0x6e65696c
  401308:	00000074 	.word	0x00000074
  40130c:	30316d68 	.word	0x30316d68
  401310:	696c635f 	.word	0x696c635f
  401314:	5f746e65 	.word	0x5f746e65
  401318:	74696e69 	.word	0x74696e69
  40131c:	00000000 	.word	0x00000000
  401320:	492b5441 	.word	0x492b5441
  401324:	31454d4d 	.word	0x31454d4d
  401328:	00000000 	.word	0x00000000
  40132c:	522b5441 	.word	0x522b5441
  401330:	31454c4f 	.word	0x31454c4f
  401334:	00000000 	.word	0x00000000
  401338:	442b5441 	.word	0x442b5441
  40133c:	3f435349 	.word	0x3f435349
  401340:	00000000 	.word	0x00000000
  401344:	432b5441 	.word	0x432b5441
  401348:	304e4e4f 	.word	0x304e4e4f
  40134c:	00000000 	.word	0x00000000
  401350:	00005441 	.word	0x00005441
  401354:	522b5441 	.word	0x522b5441
  401358:	54455345 	.word	0x54455345
  40135c:	00000000 	.word	0x00000000
  401360:	4e2b5441 	.word	0x4e2b5441
  401364:	53454d41 	.word	0x53454d41
  401368:	65767265 	.word	0x65767265
  40136c:	00000072 	.word	0x00000072
  401370:	522b5441 	.word	0x522b5441
  401374:	30454c4f 	.word	0x30454c4f
  401378:	00000000 	.word	0x00000000
  40137c:	30316d68 	.word	0x30316d68
  401380:	7265735f 	.word	0x7265735f
  401384:	5f726576 	.word	0x5f726576
  401388:	74696e69 	.word	0x74696e69
  40138c:	00000000 	.word	0x00000000
  401390:	63696e49 	.word	0x63696e49
  401394:	696c6169 	.word	0x696c6169
  401398:	646e617a 	.word	0x646e617a
  40139c:	2e2e2e6f 	.word	0x2e2e2e6f
  4013a0:	00000a0d 	.word	0x00000a0d
  4013a4:	666e6f43 	.word	0x666e6f43
  4013a8:	48206769 	.word	0x48206769
  4013ac:	20353043 	.word	0x20353043
  4013b0:	76726553 	.word	0x76726553
  4013b4:	2e2e7265 	.word	0x2e2e7265
  4013b8:	000a0d2e 	.word	0x000a0d2e
  4013bc:	666e6f43 	.word	0x666e6f43
  4013c0:	48206769 	.word	0x48206769
  4013c4:	20353043 	.word	0x20353043
  4013c8:	65696c43 	.word	0x65696c43
  4013cc:	2e2e746e 	.word	0x2e2e746e
  4013d0:	000a0d2e 	.word	0x000a0d2e
  4013d4:	000a494f 	.word	0x000a494f
  4013d8:	6e69616d 	.word	0x6e69616d
  4013dc:	00000000 	.word	0x00000000
  4013e0:	0000005b 	.word	0x0000005b
  4013e4:	0000205d 	.word	0x0000205d

004013e8 <_global_impure_ptr>:
  4013e8:	20400008                                ..@ 

004013ec <_init>:
  4013ec:	b5f8      	push	{r3, r4, r5, r6, r7, lr}
  4013ee:	bf00      	nop
  4013f0:	bcf8      	pop	{r3, r4, r5, r6, r7}
  4013f2:	bc08      	pop	{r3}
  4013f4:	469e      	mov	lr, r3
  4013f6:	4770      	bx	lr

004013f8 <__init_array_start>:
  4013f8:	004011dd 	.word	0x004011dd

004013fc <__frame_dummy_init_array_entry>:
  4013fc:	00400165                                e.@.

00401400 <_fini>:
  401400:	b5f8      	push	{r3, r4, r5, r6, r7, lr}
  401402:	bf00      	nop
  401404:	bcf8      	pop	{r3, r4, r5, r6, r7}
  401406:	bc08      	pop	{r3}
  401408:	469e      	mov	lr, r3
  40140a:	4770      	bx	lr

0040140c <__fini_array_start>:
  40140c:	00400141 	.word	0x00400141
